{
    "_format": "hh-sol-artifact-1",
    "contractName": "HashTask",
    "sourceName": "contracts/HashTask.sol",
    "abi": [
        {
            "inputs": [
                {
                    "internalType": "address",
                    "name": "_usersContractAddress",
                    "type": "address"
                }
            ],
            "stateMutability": "nonpayable",
            "type": "constructor"
        },
        {
            "anonymous": false,
            "inputs": [
                {
                    "indexed": false,
                    "internalType": "uint256",
                    "name": "taskIndex",
                    "type": "uint256"
                },
                {
                    "indexed": false,
                    "internalType": "bytes32",
                    "name": "hashValue",
                    "type": "bytes32"
                },
                {
                    "indexed": false,
                    "internalType": "bytes32",
                    "name": "taskHash",
                    "type": "bytes32"
                },
                {
                    "indexed": false,
                    "internalType": "address",
                    "name": "managerAddress",
                    "type": "address"
                },
                {
                    "indexed": false,
                    "internalType": "uint256",
                    "name": "reward",
                    "type": "uint256"
                },
                {
                    "indexed": false,
                    "internalType": "uint256",
                    "name": "deadline",
                    "type": "uint256"
                },
                {
                    "indexed": false,
                    "internalType": "uint8",
                    "name": "difficulty",
                    "type": "uint8"
                },
                {
                    "indexed": false,
                    "internalType": "bool",
                    "name": "keyReveal",
                    "type": "bool"
                },
                {
                    "indexed": false,
                    "internalType": "uint64",
                    "name": "lastInteractionBlockIndex",
                    "type": "uint64"
                }
            ],
            "name": "NewTask",
            "type": "event"
        },
        {
            "anonymous": false,
            "inputs": [
                {
                    "indexed": false,
                    "internalType": "uint256",
                    "name": "taskIndex",
                    "type": "uint256"
                },
                {
                    "indexed": false,
                    "internalType": "bytes32",
                    "name": "hashValueKey",
                    "type": "bytes32"
                },
                {
                    "indexed": false,
                    "internalType": "uint256",
                    "name": "nonce",
                    "type": "uint256"
                },
                {
                    "indexed": false,
                    "internalType": "uint256",
                    "name": "totalReward",
                    "type": "uint256"
                },
                {
                    "indexed": false,
                    "internalType": "address",
                    "name": "completionWorker",
                    "type": "address"
                },
                {
                    "indexed": false,
                    "internalType": "uint64",
                    "name": "lastInteractionBlockIndex",
                    "type": "uint64"
                }
            ],
            "name": "TaskComplete",
            "type": "event"
        },
        {
            "anonymous": false,
            "inputs": [
                {
                    "indexed": false,
                    "internalType": "uint256",
                    "name": "taskIndex",
                    "type": "uint256"
                },
                {
                    "indexed": false,
                    "internalType": "address",
                    "name": "funderAddress",
                    "type": "address"
                },
                {
                    "indexed": false,
                    "internalType": "uint256",
                    "name": "reward",
                    "type": "uint256"
                },
                {
                    "indexed": false,
                    "internalType": "uint256",
                    "name": "totalReward",
                    "type": "uint256"
                },
                {
                    "indexed": false,
                    "internalType": "uint64",
                    "name": "lastInteractionBlockIndex",
                    "type": "uint64"
                }
            ],
            "name": "TaskFunded",
            "type": "event"
        },
        {
            "anonymous": false,
            "inputs": [
                {
                    "indexed": false,
                    "internalType": "uint256",
                    "name": "taskIndex",
                    "type": "uint256"
                },
                {
                    "indexed": false,
                    "internalType": "bytes32",
                    "name": "key",
                    "type": "bytes32"
                },
                {
                    "indexed": false,
                    "internalType": "uint256",
                    "name": "weiAmount",
                    "type": "uint256"
                },
                {
                    "indexed": false,
                    "internalType": "address",
                    "name": "withdrawAddress",
                    "type": "address"
                },
                {
                    "indexed": false,
                    "internalType": "uint64",
                    "name": "lastInteractionBlockIndex",
                    "type": "uint64"
                }
            ],
            "name": "TaskWithdrawn",
            "type": "event"
        },
        {
            "inputs": [
                {
                    "internalType": "bytes32",
                    "name": "_hashValue",
                    "type": "bytes32"
                },
                {
                    "internalType": "bytes32",
                    "name": "_taskHash",
                    "type": "bytes32"
                },
                {
                    "internalType": "uint256",
                    "name": "_secondsToDeadline",
                    "type": "uint256"
                },
                {
                    "internalType": "uint8",
                    "name": "_difficulty",
                    "type": "uint8"
                },
                {
                    "internalType": "bool",
                    "name": "_keyReveal",
                    "type": "bool"
                }
            ],
            "name": "addHashTask",
            "outputs": [],
            "stateMutability": "payable",
            "type": "function"
        },
        {
            "inputs": [
                {
                    "internalType": "uint256",
                    "name": "_taskIndex",
                    "type": "uint256"
                }
            ],
            "name": "fundHashTask",
            "outputs": [],
            "stateMutability": "payable",
            "type": "function"
        },
        {
            "inputs": [
                {
                    "internalType": "uint256",
                    "name": "_taskIndex",
                    "type": "uint256"
                }
            ],
            "name": "getHashTaskComplete",
            "outputs": [
                {
                    "internalType": "bool",
                    "name": "",
                    "type": "bool"
                }
            ],
            "stateMutability": "view",
            "type": "function"
        },
        {
            "inputs": [
                {
                    "internalType": "uint256",
                    "name": "_taskIndex",
                    "type": "uint256"
                }
            ],
            "name": "getHashTaskDeadline",
            "outputs": [
                {
                    "internalType": "uint64",
                    "name": "",
                    "type": "uint64"
                }
            ],
            "stateMutability": "view",
            "type": "function"
        },
        {
            "inputs": [
                {
                    "internalType": "uint256",
                    "name": "_taskIndex",
                    "type": "uint256"
                }
            ],
            "name": "getHashTaskDifficulty",
            "outputs": [
                {
                    "internalType": "uint8",
                    "name": "",
                    "type": "uint8"
                }
            ],
            "stateMutability": "view",
            "type": "function"
        },
        {
            "inputs": [
                {
                    "internalType": "uint256",
                    "name": "_taskIndex",
                    "type": "uint256"
                }
            ],
            "name": "getHashTaskHash",
            "outputs": [
                {
                    "internalType": "bytes32",
                    "name": "",
                    "type": "bytes32"
                }
            ],
            "stateMutability": "view",
            "type": "function"
        },
        {
            "inputs": [
                {
                    "internalType": "uint256",
                    "name": "_taskIndex",
                    "type": "uint256"
                }
            ],
            "name": "getHashTaskKeyReveal",
            "outputs": [
                {
                    "internalType": "bool",
                    "name": "",
                    "type": "bool"
                }
            ],
            "stateMutability": "view",
            "type": "function"
        },
        {
            "inputs": [
                {
                    "internalType": "uint256",
                    "name": "_taskIndex",
                    "type": "uint256"
                }
            ],
            "name": "getHashTaskManagerAddress",
            "outputs": [
                {
                    "internalType": "address",
                    "name": "",
                    "type": "address"
                }
            ],
            "stateMutability": "view",
            "type": "function"
        },
        {
            "inputs": [
                {
                    "internalType": "uint256",
                    "name": "_taskIndex",
                    "type": "uint256"
                }
            ],
            "name": "getHashTaskTaskHash",
            "outputs": [
                {
                    "internalType": "bytes32",
                    "name": "",
                    "type": "bytes32"
                }
            ],
            "stateMutability": "view",
            "type": "function"
        },
        {
            "inputs": [
                {
                    "internalType": "uint256",
                    "name": "_taskIndex",
                    "type": "uint256"
                }
            ],
            "name": "getHashTaskTotalWei",
            "outputs": [
                {
                    "internalType": "uint256",
                    "name": "",
                    "type": "uint256"
                }
            ],
            "stateMutability": "view",
            "type": "function"
        },
        {
            "inputs": [
                {
                    "internalType": "uint256",
                    "name": "_taskIndex",
                    "type": "uint256"
                },
                {
                    "internalType": "address",
                    "name": "_contributorAddress",
                    "type": "address"
                }
            ],
            "name": "getHashTaskWeiContribution",
            "outputs": [
                {
                    "internalType": "uint256",
                    "name": "",
                    "type": "uint256"
                }
            ],
            "stateMutability": "view",
            "type": "function"
        },
        {
            "inputs": [],
            "name": "lastInteractionBlockIndex",
            "outputs": [
                {
                    "internalType": "uint64",
                    "name": "",
                    "type": "uint64"
                }
            ],
            "stateMutability": "view",
            "type": "function"
        },
        {
            "inputs": [
                {
                    "internalType": "uint256",
                    "name": "_taskIndex",
                    "type": "uint256"
                },
                {
                    "internalType": "bytes32",
                    "name": "_hashValueKey",
                    "type": "bytes32"
                },
                {
                    "internalType": "uint256",
                    "name": "_nonce",
                    "type": "uint256"
                }
            ],
            "name": "submitHashTask",
            "outputs": [],
            "stateMutability": "payable",
            "type": "function"
        },
        {
            "inputs": [
                {
                    "internalType": "uint256",
                    "name": "",
                    "type": "uint256"
                }
            ],
            "name": "tasks",
            "outputs": [
                {
                    "internalType": "bytes32",
                    "name": "hashValue",
                    "type": "bytes32"
                },
                {
                    "internalType": "bytes32",
                    "name": "taskHash",
                    "type": "bytes32"
                },
                {
                    "internalType": "address",
                    "name": "managerAddress",
                    "type": "address"
                },
                {
                    "internalType": "uint256",
                    "name": "contributionTotalWei",
                    "type": "uint256"
                },
                {
                    "internalType": "uint64",
                    "name": "deadline",
                    "type": "uint64"
                },
                {
                    "internalType": "uint8",
                    "name": "difficulty",
                    "type": "uint8"
                },
                {
                    "internalType": "bool",
                    "name": "taskComplete",
                    "type": "bool"
                },
                {
                    "internalType": "bool",
                    "name": "keyReveal",
                    "type": "bool"
                }
            ],
            "stateMutability": "view",
            "type": "function"
        },
        {
            "inputs": [],
            "name": "tasksCount",
            "outputs": [
                {
                    "internalType": "uint64",
                    "name": "",
                    "type": "uint64"
                }
            ],
            "stateMutability": "view",
            "type": "function"
        },
        {
            "inputs": [],
            "name": "usersContract",
            "outputs": [
                {
                    "internalType": "contract Users",
                    "name": "",
                    "type": "address"
                }
            ],
            "stateMutability": "view",
            "type": "function"
        },
        {
            "inputs": [
                {
                    "internalType": "uint256",
                    "name": "_taskIndex",
                    "type": "uint256"
                },
                {
                    "internalType": "bytes32",
                    "name": "_keyReveal",
                    "type": "bytes32"
                }
            ],
            "name": "withdrawHashTask",
            "outputs": [],
            "stateMutability": "payable",
            "type": "function"
        }
    ],
    "bytecode": "0x60803461007457601f610e9938819003918201601f19168301916001600160401b038311848410176100795780849260209460405283398101031261007457516001600160a01b0381169081900361007457600280546001600160a01b031916919091179055604051610e0990816100908239f35b600080fd5b634e487b7160e01b600052604160045260246000fdfe6040608081526004908136101561001557600080fd5b600091823560e01c806309198f88146109ee57806312fc60ec146108ee578063142ebf3c146108c55780633bee955a146105ee5780633f271777146105bb57806352321e1d1461034757806368bbf48d1461031f5780638d97767214610295578063a5f09cc314610263578063b0d006b51461023c578063bb6a0f0714610212578063cea8a6bf146101e9578063d7e7e095146101b7578063db0b80121461018f578063ded677e514610143578063df0f46cd1461010e5763e8b8322e146100dc57600080fd5b3461010a57602036600319011261010a5760058260209460ff9335815260018652200154821c169051908152f35b8280fd5b503461010a57602036600319011261010a5735825260016020908152918190206002015490516001600160a01b039091168152f35b503461010a578160031936011261010a576024356001600160a01b038116919082900361018b5792829160209435825260018552600383832001908252845220549051908152f35b8380fd5b503461010a57602036600319011261010a578160209382358152600185522001549051908152f35b503461010a57602036600319011261010a5760058260209460ff933581526001865220015460481c1690519015158152f35b503461010a57602036600319011261010a57816020936001923581528285522001549051908152f35b5050346102385781600319360112610238576001600160401b0360209254169051908152f35b5080fd5b503461010a57602036600319011261010a5760209282913581526001845220549051908152f35b503461010a57602036600319011261010a5760058260209460ff933581526001865220015460501c1690519015158152f35b503461010a57602036600319011261010a578060ff83610100958294358152600160205220805494600182015491600560018060a01b0360028301541695820154910154948593835198895260208901528288015260608701526001600160401b03821660808701521c1660a0840152818160481c16151560c084015260501c16151560e0820152f35b5050346102385781600319360112610238576001600160401b0360209254821c169051908152f35b5060a036600319011261010a5780356024359160443560643560ff81168082036105b757608435918215158093036105b357600254885163eb0eb8ab60e01b81523387820152602095918690829060249082906001600160a01b03165afa9081156105a9578b9161056f575b50156105395780156104f6579261012092878a9897969360058b61044a8f997f1641fc36464d6c29b642a7fe239b0d07f97dce89873be5a61a9ce4c79eefd0ee9a6001600160401b039e8f9485835416835260018c528183209889556001890155600288013360018060a01b0319825416179055338252600388018b52349120558b8601610442348254610db0565b905542610db0565b169201908c8383549160ff60501b8860501b169360ff60401b911b16916aff00ffffffffffffffffff191617171790558b5499898b16988c51958a87528601528b85015233606085015234608085015260a084015260c083015260e08201528587891c16610100820152a18282146104e3575060010116916001600160401b0360401b9043901b169060018060801b0319161717815580f35b634e487b7160e01b865260119052602485fd5b885162461bcd60e51b8152808701869052601e60248201527f446561646c696e65206d75737420626520696e207468652066757475726500006044820152606490fd5b885162461bcd60e51b8152808701869052601060248201526f125b9858dd1a5d99481858d8dbdd5b9d60821b6044820152606490fd5b90508581813d83116105a2575b6105868183610d50565b8101031261059e5751801515810361059e57386103b3565b8a80fd5b503d61057c565b8a513d8d823e3d90fd5b8880fd5b8780fd5b503461010a57602036600319011261010a576005826020946001600160401b039335815260018652200154169051908152f35b5090606036600319011261010a578135602480356044356001600160401b039261061c848954168610610c31565b8488526020966001885261063c60ff6005898c20015460481c1615610c78565b85895260018852610657856005898c20015416421115610cbd565b85895260018852868920908751898101908682528a815261067781610d04565b51902082540361087857875189810190868252338a82015289815261069b81610d35565b51902088518a8101918252858a8201528981526106b781610d35565b51902091600581019260ff84548b1c1690811591821561082d575b5050156107db578101928a8080808754335af16106ed610d71565b501561077a575050805460ff60481b1916600160481b17905554875486519586529685019290925283850152606083015233608083015283831c1660a08201527f8234d13d354199e3d38f8ea1d230227a7ccca9062f3077ba3057246e3f18f7dd9060c090a167ffffffffffffffff60401b199091164390911b67ffffffffffffffff60401b1617815580f35b885162461bcd60e51b81529182018a90526036908201527f4572726f72207472616e7366657272696e672066756e6473206f66207375636360448201527532b9b9b33ab6103a30b9b59031b7b6b83632ba34b7b760511b6064820152608490fd5b885162461bcd60e51b81528083018b90526027818601527f526573706f6e7365206861736820646f6573206e6f74206d6174636820646966604482015266666963756c747960c81b6064820152608490fd5b9091506101000361ffff90818111610866571660ff8111610854576001901b1138806106d2565b634e487b7160e01b8d5260118452858dfd5b634e487b7160e01b8e5260118552868efd5b875162461bcd60e51b81529081018990526022818401527f486173682076616c756520646f6573206e6f74206d6174636820657870656374604482015261195960f21b6064820152608490fd5b50503461023857816003193601126102385760025490516001600160a01b039091168152602090f35b50906020918260031936011261018b5760a0817ffbae0e75947cc62a28d2df60c9b1fcec0aa5da90b49cdcc340028b7652c1de509235906001600160401b039061093c828954168410610c31565b8288526001875261095960ff6005888b20015460481c1615610c78565b82885260018752610974826005888b20015416421115610cbd565b82885260018752858820338952600381018852868920610995348254610db0565b9055016109a3348254610db0565b809155875496865193845233908401523486840152606083015285851c166080820152a167ffffffffffffffff60401b199091164390911b67ffffffffffffffff60401b1617815580f35b50908060031936011261010a578135602435926001600160401b0390610a18828754168410610c31565b82865260209460018652610a3860ff6005878a20015460481c1615610c78565b83875260018652826005868920015416421115610bee578387526001865284872060ff600582015460501c16158015610bd7575b8015610bb6575b15610b625760030133885280875285882054928880808087335af1610a96610d71565b5015610b1557509160a093917f0f1816ea1fd9229ea4957b37f6a86a51c9ec6748146bac827b18f4b0b1b8c7f99593338a528852888781205588549787519485528401528583015233606083015285851c166080820152a167ffffffffffffffff60401b199091164390911b67ffffffffffffffff60401b1617815580f35b865162461bcd60e51b8152908101889052602160248201527f4572726f72207769746864726177696e672066756e64732066726f6d207461736044820152606b60f81b6064820152608490fd5b855162461bcd60e51b8152808401889052602860248201527f4d616e676572206d7573742072657665616c206b657920746f2077697468647260448201526761772066756e647360c01b6064820152608490fd5b50855187810190838252888152610bcc81610d04565b519020815414610a73565b5060028101546001600160a01b0316331415610a6c565b845162461bcd60e51b8152808301879052601b60248201527f4d757374207761697420666f72207461736b20646561646c696e6500000000006044820152606490fd5b15610c3857565b60405162461bcd60e51b81526020600482015260186024820152775461736b20696e646578206f7574206f6620626f756e647360401b6044820152606490fd5b15610c7f57565b60405162461bcd60e51b815260206004820152601660248201527515185cdac8185b1c9958591e4818dbdb5c1b195d195960521b6044820152606490fd5b15610cc457565b60405162461bcd60e51b815260206004820152601860248201527715185cdac8191958591b1a5b99481a185cc81c185cdcd95960421b6044820152606490fd5b604081019081106001600160401b03821117610d1f57604052565b634e487b7160e01b600052604160045260246000fd5b606081019081106001600160401b03821117610d1f57604052565b90601f801991011681019081106001600160401b03821117610d1f57604052565b3d15610dab573d906001600160401b038211610d1f5760405191610d9f601f8201601f191660200184610d50565b82523d6000602084013e565b606090565b91908201809211610dbd57565b634e487b7160e01b600052601160045260246000fdfea2646970667358221220e55ae1e7a7069a6ae622a0c3efe49814129ef7657613df726e6cbe6c73e66c9d64736f6c63430008180033",
    "linkReferences": {},
    "deployedLinkReferences": {}
}