{
    "_format": "hh-sol-artifact-1",
    "contractName": "TheList",
    "sourceName": "contracts/TheList.sol",
    "abi": [
        {
            "inputs": [
                {
                    "internalType": "string[]",
                    "name": "_ethicsRequirements",
                    "type": "string[]"
                },
                {
                    "internalType": "address",
                    "name": "_usersContractAddress",
                    "type": "address"
                }
            ],
            "stateMutability": "nonpayable",
            "type": "constructor"
        },
        {
            "anonymous": false,
            "inputs": [
                {
                    "indexed": false,
                    "internalType": "uint64",
                    "name": "proposalIndex",
                    "type": "uint64"
                },
                {
                    "indexed": false,
                    "internalType": "address",
                    "name": "proposalAddress",
                    "type": "address"
                },
                {
                    "indexed": false,
                    "internalType": "uint64",
                    "name": "lastInteractionBlockIndex",
                    "type": "uint64"
                }
            ],
            "name": "EthicsProposal",
            "type": "event"
        },
        {
            "anonymous": false,
            "inputs": [
                {
                    "indexed": false,
                    "internalType": "uint64",
                    "name": "ethicsProposalIndex",
                    "type": "uint64"
                },
                {
                    "indexed": false,
                    "internalType": "address",
                    "name": "voterAddress",
                    "type": "address"
                },
                {
                    "indexed": false,
                    "internalType": "uint64",
                    "name": "lastInteractionBlockIndex",
                    "type": "uint64"
                }
            ],
            "name": "EthicsVote",
            "type": "event"
        },
        {
            "anonymous": false,
            "inputs": [
                {
                    "indexed": false,
                    "internalType": "uint64",
                    "name": "version",
                    "type": "uint64"
                },
                {
                    "indexed": false,
                    "internalType": "address",
                    "name": "proposalAddress",
                    "type": "address"
                },
                {
                    "indexed": false,
                    "internalType": "uint64",
                    "name": "lastInteractionBlockIndex",
                    "type": "uint64"
                }
            ],
            "name": "NewEthicsRequirements",
            "type": "event"
        },
        {
            "anonymous": false,
            "inputs": [
                {
                    "indexed": false,
                    "internalType": "uint256",
                    "name": "requirementIndex",
                    "type": "uint256"
                },
                {
                    "indexed": false,
                    "internalType": "bytes32",
                    "name": "newRequirementHash",
                    "type": "bytes32"
                },
                {
                    "indexed": false,
                    "internalType": "address",
                    "name": "requirementAddress",
                    "type": "address"
                },
                {
                    "indexed": false,
                    "internalType": "uint64",
                    "name": "lastInteractionBlockIndex",
                    "type": "uint64"
                }
            ],
            "name": "NewRequirement",
            "type": "event"
        },
        {
            "anonymous": false,
            "inputs": [
                {
                    "indexed": false,
                    "internalType": "uint256",
                    "name": "requirementIndex",
                    "type": "uint256"
                },
                {
                    "indexed": false,
                    "internalType": "bytes32",
                    "name": "newRequirementHash",
                    "type": "bytes32"
                },
                {
                    "indexed": false,
                    "internalType": "uint64",
                    "name": "version",
                    "type": "uint64"
                },
                {
                    "indexed": false,
                    "internalType": "address",
                    "name": "proposalAddress",
                    "type": "address"
                },
                {
                    "indexed": false,
                    "internalType": "uint64",
                    "name": "lastInteractionBlockIndex",
                    "type": "uint64"
                }
            ],
            "name": "NewRequirementUpdate",
            "type": "event"
        },
        {
            "anonymous": false,
            "inputs": [
                {
                    "indexed": false,
                    "internalType": "uint256",
                    "name": "requirementIndex",
                    "type": "uint256"
                },
                {
                    "indexed": false,
                    "internalType": "uint64",
                    "name": "requirementProposalIndex",
                    "type": "uint64"
                },
                {
                    "indexed": false,
                    "internalType": "address",
                    "name": "proposalAddress",
                    "type": "address"
                },
                {
                    "indexed": false,
                    "internalType": "uint64",
                    "name": "lastInteractionBlockIndex",
                    "type": "uint64"
                }
            ],
            "name": "Proposal",
            "type": "event"
        },
        {
            "anonymous": false,
            "inputs": [
                {
                    "indexed": false,
                    "internalType": "uint256",
                    "name": "requirementIndex",
                    "type": "uint256"
                },
                {
                    "indexed": false,
                    "internalType": "uint64",
                    "name": "requirementProposalIndex",
                    "type": "uint64"
                },
                {
                    "indexed": false,
                    "internalType": "address",
                    "name": "voterAddress",
                    "type": "address"
                },
                {
                    "indexed": false,
                    "internalType": "uint64",
                    "name": "lastInteractionBlockIndex",
                    "type": "uint64"
                }
            ],
            "name": "Vote",
            "type": "event"
        },
        {
            "inputs": [
                {
                    "internalType": "bytes32",
                    "name": "_requirementHash",
                    "type": "bytes32"
                }
            ],
            "name": "addRequirement",
            "outputs": [],
            "stateMutability": "nonpayable",
            "type": "function"
        },
        {
            "inputs": [],
            "name": "ethicsProposalsCount",
            "outputs": [
                {
                    "internalType": "uint64",
                    "name": "",
                    "type": "uint64"
                }
            ],
            "stateMutability": "view",
            "type": "function"
        },
        {
            "inputs": [
                {
                    "internalType": "uint256",
                    "name": "",
                    "type": "uint256"
                }
            ],
            "name": "ethicsRequirements",
            "outputs": [
                {
                    "internalType": "string",
                    "name": "",
                    "type": "string"
                }
            ],
            "stateMutability": "view",
            "type": "function"
        },
        {
            "inputs": [
                {
                    "internalType": "uint64",
                    "name": "",
                    "type": "uint64"
                }
            ],
            "name": "ethicsUpdateProposals",
            "outputs": [
                {
                    "internalType": "address",
                    "name": "ethicsProposalAddress",
                    "type": "address"
                },
                {
                    "internalType": "uint64",
                    "name": "votesFor",
                    "type": "uint64"
                }
            ],
            "stateMutability": "view",
            "type": "function"
        },
        {
            "inputs": [],
            "name": "ethicsVersion",
            "outputs": [
                {
                    "internalType": "uint64",
                    "name": "",
                    "type": "uint64"
                }
            ],
            "stateMutability": "view",
            "type": "function"
        },
        {
            "inputs": [],
            "name": "getEthicsRequirements",
            "outputs": [
                {
                    "internalType": "string[]",
                    "name": "",
                    "type": "string[]"
                }
            ],
            "stateMutability": "view",
            "type": "function"
        },
        {
            "inputs": [
                {
                    "internalType": "uint64",
                    "name": "_proposalIndex",
                    "type": "uint64"
                }
            ],
            "name": "getEthicsRequirementsProposal",
            "outputs": [
                {
                    "internalType": "string[]",
                    "name": "",
                    "type": "string[]"
                }
            ],
            "stateMutability": "view",
            "type": "function"
        },
        {
            "inputs": [
                {
                    "internalType": "uint64",
                    "name": "_proposalIndex",
                    "type": "uint64"
                }
            ],
            "name": "getEthicsRequirementsProposalAddress",
            "outputs": [
                {
                    "internalType": "address",
                    "name": "",
                    "type": "address"
                }
            ],
            "stateMutability": "view",
            "type": "function"
        },
        {
            "inputs": [
                {
                    "internalType": "uint64",
                    "name": "_proposalIndex",
                    "type": "uint64"
                },
                {
                    "internalType": "address",
                    "name": "_voterAddress",
                    "type": "address"
                }
            ],
            "name": "getEthicsRequirementsProposalDidVote",
            "outputs": [
                {
                    "internalType": "bool",
                    "name": "",
                    "type": "bool"
                }
            ],
            "stateMutability": "view",
            "type": "function"
        },
        {
            "inputs": [
                {
                    "internalType": "uint64",
                    "name": "_proposalIndex",
                    "type": "uint64"
                }
            ],
            "name": "getEthicsRequirementsProposalVotesFor",
            "outputs": [
                {
                    "internalType": "uint64",
                    "name": "",
                    "type": "uint64"
                }
            ],
            "stateMutability": "view",
            "type": "function"
        },
        {
            "inputs": [
                {
                    "internalType": "uint256",
                    "name": "_requirementIndex",
                    "type": "uint256"
                }
            ],
            "name": "getRequirementHash",
            "outputs": [
                {
                    "internalType": "bytes32",
                    "name": "",
                    "type": "bytes32"
                }
            ],
            "stateMutability": "view",
            "type": "function"
        },
        {
            "inputs": [
                {
                    "internalType": "uint256",
                    "name": "_requirementIndex",
                    "type": "uint256"
                },
                {
                    "internalType": "uint64",
                    "name": "_proposalIndex",
                    "type": "uint64"
                }
            ],
            "name": "getRequirementProposalAddress",
            "outputs": [
                {
                    "internalType": "address",
                    "name": "",
                    "type": "address"
                }
            ],
            "stateMutability": "view",
            "type": "function"
        },
        {
            "inputs": [
                {
                    "internalType": "uint256",
                    "name": "_requirementIndex",
                    "type": "uint256"
                },
                {
                    "internalType": "uint64",
                    "name": "_proposalIndex",
                    "type": "uint64"
                },
                {
                    "internalType": "address",
                    "name": "_voterAddress",
                    "type": "address"
                }
            ],
            "name": "getRequirementProposalDidVote",
            "outputs": [
                {
                    "internalType": "bool",
                    "name": "",
                    "type": "bool"
                }
            ],
            "stateMutability": "view",
            "type": "function"
        },
        {
            "inputs": [
                {
                    "internalType": "uint256",
                    "name": "_requirementIndex",
                    "type": "uint256"
                },
                {
                    "internalType": "uint64",
                    "name": "_proposalIndex",
                    "type": "uint64"
                }
            ],
            "name": "getRequirementProposalHash",
            "outputs": [
                {
                    "internalType": "bytes32",
                    "name": "",
                    "type": "bytes32"
                }
            ],
            "stateMutability": "view",
            "type": "function"
        },
        {
            "inputs": [
                {
                    "internalType": "uint256",
                    "name": "_requirementIndex",
                    "type": "uint256"
                },
                {
                    "internalType": "uint64",
                    "name": "_proposalIndex",
                    "type": "uint64"
                }
            ],
            "name": "getRequirementProposalVotesFor",
            "outputs": [
                {
                    "internalType": "uint64",
                    "name": "",
                    "type": "uint64"
                }
            ],
            "stateMutability": "view",
            "type": "function"
        },
        {
            "inputs": [
                {
                    "internalType": "uint256",
                    "name": "_requirementIndex",
                    "type": "uint256"
                }
            ],
            "name": "getRequirementProposals",
            "outputs": [
                {
                    "internalType": "uint64",
                    "name": "",
                    "type": "uint64"
                }
            ],
            "stateMutability": "view",
            "type": "function"
        },
        {
            "inputs": [
                {
                    "internalType": "uint256",
                    "name": "_requirementIndex",
                    "type": "uint256"
                }
            ],
            "name": "getRequirementValidatorAddress",
            "outputs": [
                {
                    "internalType": "address",
                    "name": "",
                    "type": "address"
                }
            ],
            "stateMutability": "view",
            "type": "function"
        },
        {
            "inputs": [
                {
                    "internalType": "uint256",
                    "name": "_requirementIndex",
                    "type": "uint256"
                }
            ],
            "name": "getRequirementVersion",
            "outputs": [
                {
                    "internalType": "uint64",
                    "name": "",
                    "type": "uint64"
                }
            ],
            "stateMutability": "view",
            "type": "function"
        },
        {
            "inputs": [],
            "name": "lastInteractionBlockIndex",
            "outputs": [
                {
                    "internalType": "uint64",
                    "name": "",
                    "type": "uint64"
                }
            ],
            "stateMutability": "view",
            "type": "function"
        },
        {
            "inputs": [],
            "name": "requirementCount",
            "outputs": [
                {
                    "internalType": "uint64",
                    "name": "",
                    "type": "uint64"
                }
            ],
            "stateMutability": "view",
            "type": "function"
        },
        {
            "inputs": [
                {
                    "internalType": "uint256",
                    "name": "",
                    "type": "uint256"
                }
            ],
            "name": "requirements",
            "outputs": [
                {
                    "internalType": "bytes32",
                    "name": "requirementHash",
                    "type": "bytes32"
                },
                {
                    "internalType": "address",
                    "name": "validatorAddress",
                    "type": "address"
                },
                {
                    "internalType": "uint64",
                    "name": "version",
                    "type": "uint64"
                },
                {
                    "internalType": "uint64",
                    "name": "proposalsCount",
                    "type": "uint64"
                }
            ],
            "stateMutability": "view",
            "type": "function"
        },
        {
            "inputs": [
                {
                    "internalType": "string[]",
                    "name": "_ethicsRequirements",
                    "type": "string[]"
                }
            ],
            "name": "updateEthicsRequirements",
            "outputs": [],
            "stateMutability": "nonpayable",
            "type": "function"
        },
        {
            "inputs": [
                {
                    "internalType": "uint256",
                    "name": "_requirementIndex",
                    "type": "uint256"
                },
                {
                    "internalType": "bytes32",
                    "name": "_requirementHash",
                    "type": "bytes32"
                }
            ],
            "name": "updateRequirement",
            "outputs": [],
            "stateMutability": "nonpayable",
            "type": "function"
        },
        {
            "inputs": [],
            "name": "usersContract",
            "outputs": [
                {
                    "internalType": "contract Users",
                    "name": "",
                    "type": "address"
                }
            ],
            "stateMutability": "view",
            "type": "function"
        },
        {
            "inputs": [
                {
                    "internalType": "uint64",
                    "name": "_proposalIndex",
                    "type": "uint64"
                }
            ],
            "name": "voteEthicsRequirementsUpdate",
            "outputs": [],
            "stateMutability": "nonpayable",
            "type": "function"
        },
        {
            "inputs": [
                {
                    "internalType": "uint256",
                    "name": "_requirementIndex",
                    "type": "uint256"
                },
                {
                    "internalType": "uint64",
                    "name": "_proposalIndex",
                    "type": "uint64"
                }
            ],
            "name": "voteRequirementUpdate",
            "outputs": [],
            "stateMutability": "nonpayable",
            "type": "function"
        }
    ],
    "bytecode": "0x60406080815234620005695762001f9a803803806200001e8162000635565b92833981018282820312620005695781516001600160401b03908181116200056957830192601f83818601121562000569578451916020958484116200061f578360051b95876200007181890162000635565b80968152019088829884010192818411620005695790818a809695949301925b8484106200056e57505050509101516001600160a01b038116969150869003620005695760018060a01b0319958660045416176004556000938480526002825287852095845194680100000000000000009586811162000555578854818a55808210620004de575b50829089895285892089925b828410620003bf5750505050338752600288018452898720986001998a60ff198254161790558960038a019960018060401b03199a828c825416179055019033908254161790558589547fef465e27d8b75e304f035f7f7f965526a64f5049b3d037233700f28c46e708ea60608d8051908885821c168252338a8301528460c01c90820152a1600160401b600160801b03191617895551948511620003ab57855485875580861062000332575b50858052828620889796959486949391925b868610620001e357895489168a178a558b516118e89081620006b28239f35b8091929394959697989950519081518481116200031e578b9187918b6200020b89546200065b565b84888211620002e3575b50505082948c878311600114620002705791859681926200024c949262000264575b50508160011b916000199060031b1c19161790565b87555b019401950193929089989796959291620001c4565b01519050388062000237565b9095601f1983168a8352858320925b818110620002bf5750908697848895949310620002a5575b505050811b0187556200024f565b015160001960f88460031b161c1916905538808062000297565b9497939686929691938786015181550195019301928f95929693918b95926200027f565b828b6200030b9452208880850160051c82019287861062000314575b0160051c019062000698565b8b388462000215565b92508192620002ff565b634e487b7160e01b8a52604160045260248afd5b868052888685892092830192015b82811062000350575050620001b2565b886200035d82546200065b565b806200036f575b505001899062000340565b88811160011462000386575081555b883862000364565b828252620003a189898420920160051c820185830162000698565b818355556200037e565b634e487b7160e01b86526041600452602486fd5b8051805190888211620004ca57908c8a928c620003dd87546200065b565b8181116200049a575b505083918d84116001146200042e579280600196936200041e9388979692620002645750508160011b916000199060031b1c19161790565b85555b0192019301929062000105565b9190601f198416878452858420935b81811062000481575091600196939185889796941062000467575b505050831b8301855562000421565b015160001960f88460031b161c1916905538808062000458565b8284015185558e9660019095019493840193016200043d565b878452858420620004c29286810160051c82019288881062000314570160051c019062000698565b8c38620003e6565b634e487b7160e01b8d52604160045260248dfd5b89895281868a2091820191015b818110620004fa5750620000f9565b808a6200050a600193546200065b565b806200051a575b505001620004eb565b8a8111841462000530575081555b8a3862000511565b8282526200054b8b8b8420920160051c820185830162000698565b8183555562000528565b634e487b7160e01b88526041600452602488fd5b600080fd5b9091928094959650518981116200056957820183603f8201121562000569578b8101518a81116200060a578d9185620005af8f601f198d8601160162000635565b9383855283830101116200056957908d92918f6000905b838210620005ed575050509060008380959383010152815201930191908a95949362000091565b81839495969301015182828701015201908f918f949392620005c6565b60246000634e487b7160e01b81526041600452fd5b634e487b7160e01b600052604160045260246000fd5b6040519190601f01601f191682016001600160401b038111838210176200061f57604052565b90600182811c921680156200068d575b60208310146200067757565b634e487b7160e01b600052602260045260246000fd5b91607f16916200066b565b818110620006a4575050565b600081556001016200069856fe60806040908082526004908136101561001757600080fd5b600091823560e01c9182630b6a48bd146112d25750816311193fb614610ec4578163142ebf3c14610e9b5781631bcbfceb14610e6657816325ab5a5014610d165781632cd0ede714610ced5781632fc93e2714610cb65781633403f2a814610af2578163352a465e14610aca5781634ea71a2914610897578163601467161461086e578163661640e11461082657816368bbf48d146108045781637be058421461053d578163809d269b146104f85781638adcf2c0146104875781638d303f8f1461043757816393b5cae7146103ce578163a25a8f2314610370578163b6f9e08b14610338578163b77f750b146102d6578163b9d915e7146102ab578163c33d535e1461026e578163de58df501461021f578163dfc82685146101d4575063fb06c53c1461014457600080fd5b346101d1576020806003193601126101cd576001600160401b03610166611312565b168252600260205282822080549161017d8361137a565b9361018a86519586611343565b83855291825260208083209085015b8484106101b1578651806101ad88826114b0565b0390f35b60018381926101bf856113cb565b815201920193019290610199565b5080fd5b80fd5b8391503461021b578160031936011261021b576003826020946101f561132d565b9335815282865282828220016001600160401b0380951682528652200154169051908152f35b8280fd5b5050346101d15760203660031901126101d157816001600160401b039182610245611312565b16815260026020522090600360018060a01b036001840154169201541682519182526020820152f35b8284346101cd5760203660031901126101cd576020916003826001600160401b039283610299611312565b16815260028652200154169051908152f35b8284346101cd57816003193601126101cd576020906001600160401b0360015460801c169051908152f35b8284346101cd57806003193601126101cd576102f0611312565b6024356001600160a01b03811691908290036103345760209360ff926001600160401b03859316825260028652600283832001908252855220541690519015158152f35b8380fd5b8391503461021b57602036600319011261021b576001826020946001600160401b03933581526003865220015460a01c169051908152f35b8391503461021b57602036600319011261021b57608092829135815260036020522080549160026001830154926001600160401b0391829101541692825194855260018060a01b038116602086015260a01c16908301526060820152f35b5050346101d157806003193601126101d15780546103eb8161137a565b916103f884519384611343565b81835280805260208082208185015b84841061041b578651806101ad88826114b0565b6001838192610429856113cb565b815201920193019290610407565b8391503461021b578160031936011261021b579160209261045661132d565b9035825260038085528383206001600160401b0390921683520183528190205490516001600160a01b039091168152f35b8391503461021b57606036600319011261021b576104a361132d565b6044356001600160a01b03811692908390036104f4579360ff928492602096358352600387526001600160401b03600385852001911683528652600283832001908252855220541690519015158152f35b8480fd5b8391503461021b57602036600319011261021b5735825481101561021b5761052a90602084806101ad965220016113cb565b9051918291602083526020830190611470565b9050823461021b576020806003193601126103345782359160018060a01b039182855416928251828160248163eb0eb8ab60e01b98898252338c8301525afa9081156107fa57906105959189916107dd575b5061152c565b6001600160401b039360019687549186608093841c168a526003855287868b2055868954841c168a5288868b2001600160a01b6001600160401b0360a01b19825416179055868954841c168a528689878c20019360018060a01b03199433868254161790558a548281831c167f465a7d42a7e0104d400c7034dce44f4191580302c6ce0b440b954cb45711cadf838d8c51908482528c820152338d8201528460c01c6060820152a167ffffffffffffffff60801b90610653906115f2565b67ffffffffffffffff60801b1990921691831b1617808c55901c169160001983018881116107ca5790602489889316968254169389519485938492835233908301525afa9081156107c057879392916106b2918c91610793575061152c565b83106106bd90611620565b82895260038452848920906002820191838354168b526003018552858a209060038201986001600160401b0319998b8b8254161790558a830155338b52600282018652868b208a60ff1982541617905533908254161790555416865460c01c84519182913361072d92868561166c565b037f2580d0a82a91e76095b4d145fb137858ba0b60fe678b6826420598ba1dd938dc91a186526003905284206002019182549180831661076c906115f2565b16911617905580546001600160c01b03194360c01b166001600160c01b0390911617905580f35b6107b39150873d89116107b9575b6107ab8183611343565b810190611514565b8c61058f565b503d6107a1565b86513d8c823e3d90fd5b634e487b7160e01b8c526011825260248cfd5b6107f49150843d86116107b9576107ab8183611343565b8961058f565b84513d8a823e3d90fd5b8284346101cd57816003193601126101cd5760209060015460c01c9051908152f35b8391503461021b578160031936011261021b578160209360019261084861132d565b90358252600386526001600160401b036003848420019116825285522001549051908152f35b8391503461021b57602036600319011261021b5760209282913581526003845220549051908152f35b9050823461021b578060031936011261021b578135906108b561132d565b8354825163eb0eb8ab60e01b815233958101959095526001600160a01b03949193916020918290829060249082908a165afa908115610ac057906108ff918891610aa3575061152c565b6001600160401b0360019561091b82885460801c168510611620565b838852600383528488209482871689526003860184528089209160028301338b5280865261094f60ff848d2054161561169d565b338b528552818a20805460ff19168a179055600383018054987f7bbb908b2b1f4c3bbe854c400bf2109e1f8647bcca7e98843aeba1e1b0b9d2409186610996818d166115f2565b16809b6001600160401b0319161790558a546109bd855192839260c01c9033908c8561166c565b0390a18887018054986109d4868b60a01c166116e4565b146109fa575b89546001600160c01b03164360c01b6001600160c01b031916178a558a80f35b838a015490975582547f6327e53634069519eaf2ebcea0f65c434882e44f3395d171aa175f1577c669db9860a09891831667ffffffffffffffff60a01b610a506001600160a01b0319841683178c1c89166115f2565b8b1b169163ffffffff60e01b1617179055858a5260038552818a2093898554950154881c1692541692885460c01c94825196875286015284015260608301526080820152a18280808080808080806109da565b610aba9150833d85116107b9576107ab8183611343565b8861058f565b84513d89823e3d90fd5b8284346101cd57816003193601126101cd576020906001600160401b03600154169051908152f35b9050823461021b576020908160031936011261033457610b10611312565b9160018060a01b0393818582541691602485518094819363eb0eb8ab60e01b835233908301525afa908115610cac5790610b50918791610c8f575061152c565b6001600160401b03808416865260028252828620916002830190338852818152610b8060ff868a2054161561169d565b338852528286209360019586958660ff1982541617905560038401610c028482549481610bae8188166115f2565b1693846001600160401b03198098161790557f3a2cd3a238139197f07caeaf4df3d109c22b701de2f371ad0cc29a625c796655610bf98b54928b519182918560c01c903390846115c7565b0390a1166116e4565b14610c28575b85546001600160c01b03164360c01b6001600160c01b0319161786558780f35b7f3d2761d822d381f8b4f7b0330c4c2f39fd0aac5042ed99fcde15233b2670dc4e95610c8193610c57866117df565b815490610c658183166115f2565b16938491161794858255015416935193849360c01c91846115c7565b0390a1808380808080610c08565b610ca69150833d85116107b9576107ab8183611343565b8761058f565b83513d88823e3d90fd5b8391503461021b57602036600319011261021b5735825260036020908152918190206001015490516001600160a01b039091168152f35b8284346101cd57816003193601126101cd576001548151911c6001600160401b03168152602090f35b9050823461021b578060031936011261021b578154815163eb0eb8ab60e01b815233818501526020933592918490829060249082906001600160a01b03165afa908115610e5c5790610d6e918691610e3f575061152c565b60026001600160401b03916003600195610d8f85885460801c168710611620565b858852818152828820958285880197878954168b520182527f2580d0a82a91e76095b4d145fb137858ba0b60fe678b6826420598ba1dd938dc86858b2098858a01996001600160401b03199a8c8c8254161790556024358c820155338d528881018652878d208c60ff198254161790553360018060a01b031982541617905554168954610e27875192839260c01c903390878561166c565b0390a18852528520019182549161076c8184166115f2565b610e569150853d87116107b9576107ab8183611343565b8661058f565b82513d87823e3d90fd5b8391503461021b57602036600319011261021b576002826020946001600160401b039335815260038652200154169051908152f35b8391503461021b578260031936011261021b575490516001600160a01b03909116815260209150f35b8284346101cd5760208060031936011261021b578335916001600160401b03918284116104f457366023850112156104f4578386013590610f048261137a565b91610f1184519384611343565b8083528183019586602460059360051b830101913683116112ce5760248101915b8383106112495750508954865163eb0eb8ab60e01b815233818d01529250849150829060249082906001600160a01b03165afa90811561123f5790610f7d918991611222575061152c565b600195858754861c16885260028352848820935191600160401b831161120f57849392918a9189965490848755818510611191575b5050848a52838a20909998509496959488915b83831061109657505050509084913387526002820190528286208260ff1982541617905560038101826001600160401b0319825416179055013360018060a01b031982541617905582549182821c16907fef465e27d8b75e304f035f7f7f965526a64f5049b3d037233700f28c46e708ea8151806110488660c01c3387846115c7565b0390a167ffffffffffffffff60401b91611061906115f2565b901b1677ffffffffffffffff0000000000000000ffffffffffffffff6001600160401b0360c01b4360c01b1692161717905580f35b8a519a8b519b898d1161117e578c906110b9826110b38754611391565b87611582565b601f889211600114611115578b9c9d926110f48f94808f9d9e9f96958c9588979261110a575b50508160011b916000199060031b1c19161790565b86555b019301930192919a995097969597610fc5565b0151905038806110df565b848d52878d209190601f198f168e5b81811061116957509c809e9f819c9d9e948b9483979483859810611150575b505050811b0186556110f7565b015160001960f88460031b161c19169055388080611143565b828401518555938e0193928a01928a01611124565b634e487b7160e01b8c526041835260248cfd5b868c5284868d2092830192015b8281106111ab5750610fb2565b8c6111bf829a939495969798999a54611391565b806111d6575b505001908a9796959493929161119e565b601f8082116001146111ee57505081555b8c8e6111c5565b611206908484528b84209201861c820185830161156b565b818355556111e7565b634e487b7160e01b895260418a52602489fd5b6112399150843d86116107b9576107ab8183611343565b8a61058f565b85513d8a823e3d90fd5b82358981116112ca578201366043820112156112ca57602481013560448b82116112b5578a5192611283601f8401601f19168b0185611343565b828452368284830101116112b157898f91938082979594839795018386013783010152815201920191610f32565b8e80fd5b5050634e487b7160e01b8c5260418d5260248cfd5b8b80fd5b8980fd5b8390853461021b57602036600319011261021b579160016020936001600160401b036112fc611312565b16835260028552818060a01b0392200154168152f35b600435906001600160401b038216820361132857565b600080fd5b602435906001600160401b038216820361132857565b90601f801991011681019081106001600160401b0382111761136457604052565b634e487b7160e01b600052604160045260246000fd5b6001600160401b0381116113645760051b60200190565b90600182811c921680156113c1575b60208310146113ab57565b634e487b7160e01b600052602260045260246000fd5b91607f16916113a0565b906040519182600082546113de81611391565b9081845260209460019160018116908160001461144e575060011461140f575b50505061140d92500383611343565b565b600090815285812095935091905b81831061143657505061140d93508201013880806113fe565b8554888401850152948501948794509183019161141d565b9250505061140d94925060ff191682840152151560051b8201013880806113fe565b919082519283825260005b84811061149c575050826000602080949584010152601f8019910116010190565b60208183018101518483018201520161147b565b6020808201906020835283518092526040830192602060408460051b8301019501936000915b8483106114e65750505050505090565b9091929394958480611504600193603f198682030187528a51611470565b98019301930191949392906114d6565b90816020910312611328575180151581036113285790565b1561153357565b60405162461bcd60e51b815260206004820152601060248201526f125b9858dd1a5d99481858d8dbdd5b9d60821b6044820152606490fd5b818110611576575050565b6000815560010161156b565b9190601f811161159157505050565b61140d926000526020600020906020601f840160051c830193106115bd575b601f0160051c019061156b565b90915081906115b0565b6001600160401b0391821681526001600160a01b039092166020830152909116604082015260600190565b6001600160401b0380911690811461160a5760010190565b634e487b7160e01b600052601160045260246000fd5b1561162757565b60405162461bcd60e51b815260206004820152601f60248201527f526571756972656d656e7420696e646578206f7574206f6620626f756e6473006044820152606490fd5b9081526001600160401b0391821660208201526001600160a01b039092166040830152909116606082015260800190565b156116a457565b60405162461bcd60e51b81526020600482015260186024820152770c481d9bdd19481b1a5b5a5d081c195c881858d8dbdd5b9d60421b6044820152606490fd5b6001600160401b031660ff811161160a576001901b90565b908082146117db5761170e8154611391565b906001600160401b038211611364576117318261172b8554611391565b85611582565b600090601f8311600114611770576117619291600091836117655750508160011b916000199060031b1c19161790565b9055565b0154905038806110df565b815260208082208483528183209291601f1985169083905b8282106117c25750509084600195949392106117a9575b505050811b019055565b015460001960f88460031b161c1916905538808061179f565b8495819295850154815560018091019601940190611788565b5050565b80156118af57805490600160401b821161136457600090815483835580841061183c575b508152602081208180526020822091905b8382106118215750505050565b8061182e600192856116fc565b928101929181019101611814565b8280526020846020852092830192015b82811061185a575050611803565b808561186860019354611391565b80611876575b50500161184c565b601f808211851461188d57505081555b853861186e565b6118a690848452868420920160051c820185830161156b565b81835555611886565b5056fea26469706673582212208dfe00df1dac8b30e2a4d9cf315297753d1d41ffd2e2cd17b02a53545284e67e64736f6c63430008180033",
    "linkReferences": {},
    "deployedLinkReferences": {}
}