{
    "_format": "hh-sol-artifact-1",
    "contractName": "Users",
    "sourceName": "contracts/Users.sol",
    "abi": [
        {
            "anonymous": false,
            "inputs": [
                {
                    "indexed": false,
                    "internalType": "address",
                    "name": "userAddress",
                    "type": "address"
                },
                {
                    "indexed": false,
                    "internalType": "string",
                    "name": "links",
                    "type": "string"
                },
                {
                    "indexed": false,
                    "internalType": "uint64",
                    "name": "lastInteractionBlockIndex",
                    "type": "uint64"
                }
            ],
            "name": "ActivateUserLinks",
            "type": "event"
        },
        {
            "anonymous": false,
            "inputs": [
                {
                    "indexed": false,
                    "internalType": "address",
                    "name": "userAddress",
                    "type": "address"
                },
                {
                    "indexed": false,
                    "internalType": "string",
                    "name": "links",
                    "type": "string"
                },
                {
                    "indexed": false,
                    "internalType": "bytes",
                    "name": "data",
                    "type": "bytes"
                },
                {
                    "indexed": false,
                    "internalType": "uint64",
                    "name": "lastInteractionBlockIndex",
                    "type": "uint64"
                }
            ],
            "name": "ActivateUserLinksData",
            "type": "event"
        },
        {
            "anonymous": false,
            "inputs": [
                {
                    "indexed": false,
                    "internalType": "address",
                    "name": "userAddress",
                    "type": "address"
                },
                {
                    "indexed": false,
                    "internalType": "string",
                    "name": "links",
                    "type": "string"
                },
                {
                    "indexed": false,
                    "internalType": "bytes",
                    "name": "data",
                    "type": "bytes"
                },
                {
                    "indexed": false,
                    "internalType": "bytes32",
                    "name": "lockoutCode",
                    "type": "bytes32"
                },
                {
                    "indexed": false,
                    "internalType": "uint64",
                    "name": "lastInteractionBlockIndex",
                    "type": "uint64"
                }
            ],
            "name": "ActivateUserLinksDataLockout",
            "type": "event"
        },
        {
            "anonymous": false,
            "inputs": [
                {
                    "indexed": false,
                    "internalType": "address",
                    "name": "userAddress",
                    "type": "address"
                },
                {
                    "indexed": false,
                    "internalType": "string",
                    "name": "links",
                    "type": "string"
                },
                {
                    "indexed": false,
                    "internalType": "bytes32",
                    "name": "lockoutCode",
                    "type": "bytes32"
                },
                {
                    "indexed": false,
                    "internalType": "uint64",
                    "name": "lastInteractionBlockIndex",
                    "type": "uint64"
                }
            ],
            "name": "ActivateUserLinksLockout",
            "type": "event"
        },
        {
            "anonymous": false,
            "inputs": [
                {
                    "indexed": false,
                    "internalType": "address",
                    "name": "userAddress",
                    "type": "address"
                },
                {
                    "indexed": false,
                    "internalType": "bytes32",
                    "name": "lockoutKey",
                    "type": "bytes32"
                },
                {
                    "indexed": false,
                    "internalType": "address",
                    "name": "lockoutAddress",
                    "type": "address"
                },
                {
                    "indexed": false,
                    "internalType": "uint64",
                    "name": "lastInteractionBlockIndex",
                    "type": "uint64"
                }
            ],
            "name": "LockoutUser",
            "type": "event"
        },
        {
            "anonymous": false,
            "inputs": [
                {
                    "indexed": false,
                    "internalType": "address",
                    "name": "userAddress",
                    "type": "address"
                },
                {
                    "indexed": false,
                    "internalType": "bytes",
                    "name": "newData",
                    "type": "bytes"
                },
                {
                    "indexed": false,
                    "internalType": "uint64",
                    "name": "lastInteractionBlockIndex",
                    "type": "uint64"
                }
            ],
            "name": "UpdateData",
            "type": "event"
        },
        {
            "anonymous": false,
            "inputs": [
                {
                    "indexed": false,
                    "internalType": "address",
                    "name": "userAddress",
                    "type": "address"
                },
                {
                    "indexed": false,
                    "internalType": "string",
                    "name": "newLinks",
                    "type": "string"
                },
                {
                    "indexed": false,
                    "internalType": "uint64",
                    "name": "lastInteractionBlockIndex",
                    "type": "uint64"
                }
            ],
            "name": "UpdateLinks",
            "type": "event"
        },
        {
            "anonymous": false,
            "inputs": [
                {
                    "indexed": false,
                    "internalType": "address",
                    "name": "userAddress",
                    "type": "address"
                },
                {
                    "indexed": false,
                    "internalType": "string",
                    "name": "links",
                    "type": "string"
                },
                {
                    "indexed": false,
                    "internalType": "bytes",
                    "name": "newData",
                    "type": "bytes"
                },
                {
                    "indexed": false,
                    "internalType": "uint64",
                    "name": "lastInteractionBlockIndex",
                    "type": "uint64"
                }
            ],
            "name": "UpdateLinksData",
            "type": "event"
        },
        {
            "stateMutability": "nonpayable",
            "type": "fallback"
        },
        {
            "inputs": [
                {
                    "internalType": "string",
                    "name": "_links",
                    "type": "string"
                }
            ],
            "name": "activateUser",
            "outputs": [],
            "stateMutability": "nonpayable",
            "type": "function"
        },
        {
            "inputs": [
                {
                    "internalType": "string",
                    "name": "_links",
                    "type": "string"
                },
                {
                    "internalType": "bytes32",
                    "name": "_lockoutCode",
                    "type": "bytes32"
                }
            ],
            "name": "activateUser",
            "outputs": [],
            "stateMutability": "nonpayable",
            "type": "function"
        },
        {
            "inputs": [
                {
                    "internalType": "string",
                    "name": "_links",
                    "type": "string"
                },
                {
                    "internalType": "bytes",
                    "name": "_data",
                    "type": "bytes"
                }
            ],
            "name": "activateUser",
            "outputs": [],
            "stateMutability": "nonpayable",
            "type": "function"
        },
        {
            "inputs": [
                {
                    "internalType": "string",
                    "name": "_links",
                    "type": "string"
                },
                {
                    "internalType": "bytes",
                    "name": "_data",
                    "type": "bytes"
                },
                {
                    "internalType": "bytes32",
                    "name": "_lockoutCode",
                    "type": "bytes32"
                }
            ],
            "name": "activateUser",
            "outputs": [],
            "stateMutability": "nonpayable",
            "type": "function"
        },
        {
            "inputs": [
                {
                    "internalType": "address",
                    "name": "",
                    "type": "address"
                }
            ],
            "name": "activationStatus",
            "outputs": [
                {
                    "internalType": "enum Users.Mode",
                    "name": "",
                    "type": "uint8"
                }
            ],
            "stateMutability": "view",
            "type": "function"
        },
        {
            "inputs": [
                {
                    "internalType": "address",
                    "name": "_userAddress",
                    "type": "address"
                }
            ],
            "name": "activeUsers",
            "outputs": [
                {
                    "internalType": "bool",
                    "name": "",
                    "type": "bool"
                }
            ],
            "stateMutability": "view",
            "type": "function"
        },
        {
            "inputs": [],
            "name": "lastInteractionBlockIndex",
            "outputs": [
                {
                    "internalType": "uint64",
                    "name": "",
                    "type": "uint64"
                }
            ],
            "stateMutability": "view",
            "type": "function"
        },
        {
            "inputs": [
                {
                    "internalType": "address",
                    "name": "",
                    "type": "address"
                }
            ],
            "name": "links",
            "outputs": [
                {
                    "internalType": "string",
                    "name": "",
                    "type": "string"
                }
            ],
            "stateMutability": "view",
            "type": "function"
        },
        {
            "inputs": [
                {
                    "internalType": "address",
                    "name": "",
                    "type": "address"
                }
            ],
            "name": "lockoutCodes",
            "outputs": [
                {
                    "internalType": "bytes32",
                    "name": "",
                    "type": "bytes32"
                }
            ],
            "stateMutability": "view",
            "type": "function"
        },
        {
            "inputs": [
                {
                    "internalType": "address",
                    "name": "_userAddress",
                    "type": "address"
                },
                {
                    "internalType": "bytes32",
                    "name": "_lockoutKey",
                    "type": "bytes32"
                }
            ],
            "name": "lockoutUser",
            "outputs": [],
            "stateMutability": "nonpayable",
            "type": "function"
        },
        {
            "inputs": [
                {
                    "internalType": "bytes",
                    "name": "_data",
                    "type": "bytes"
                }
            ],
            "name": "updateData",
            "outputs": [],
            "stateMutability": "nonpayable",
            "type": "function"
        },
        {
            "inputs": [
                {
                    "internalType": "string",
                    "name": "_links",
                    "type": "string"
                }
            ],
            "name": "updateUserLinks",
            "outputs": [],
            "stateMutability": "nonpayable",
            "type": "function"
        },
        {
            "inputs": [
                {
                    "internalType": "string",
                    "name": "_links",
                    "type": "string"
                },
                {
                    "internalType": "bytes",
                    "name": "_data",
                    "type": "bytes"
                }
            ],
            "name": "updateUserLinksData",
            "outputs": [],
            "stateMutability": "nonpayable",
            "type": "function"
        },
        {
            "inputs": [
                {
                    "internalType": "address",
                    "name": "",
                    "type": "address"
                }
            ],
            "name": "usersData",
            "outputs": [
                {
                    "internalType": "bytes",
                    "name": "",
                    "type": "bytes"
                }
            ],
            "stateMutability": "view",
            "type": "function"
        }
    ],
    "bytecode": "0x6080806040523461001657611545908161001c8239f35b600080fdfe6080604081815260049081361015610021575b5050503461001c57005b600080fd5b600092833560e01c9081630560ab6914611185575080632b3fafb2146110015780633ebee66314610e945780634363b10a14610e3a5780634e7fb08314610d4e57806368bbf48d14610d2757806379d348d714610cef57806385fbc2cb14610b22578063bb4013d3146109e4578063d2b6ff3e14610783578063d399eb11146105a8578063d8f1e2a5146102c5578063eb0eb8ab146102665763ec62a3fb036100125734610262576020908160031936011261025e576001600160401b0391833583811161025a576100f690369086016112f7565b3386526002825260ff83872054169260038410156102475761011b6001809514611493565b7f99b0b408eab22097e3333e551c1d75293f73be23bf6059fb7463b6510acbd87f61015086885416835191829186338461145e565b0390a13387528683528620928151918583116102345761017a836101748754611246565b87611419565b8391601f84116001146101cd57506101ab9350879190836101c2575b50508160011b916000199060031b1c19161790565b90555b43166001600160401b031982541617905580f35b015190503880610196565b8589528489209394601f198616918a91905b83831061021d57505050908460019594939210610204575b505050811b0190556101ae565b015160001960f88460031b161c191690553880806101f7565b8486015187559586019594810194918101916101df565b634e487b7160e01b885260418752602488fd5b634e487b7160e01b875260218652602487fd5b8580fd5b8380fd5b8280fd5b5091346102c25760203660031901126102c2576001600160a01b03610289611230565b168152600260205260ff83822054169160038310156102af576020836001865191148152f35b634e487b7160e01b825260219052602490fd5b80fd5b5034610262576060366003190112610262576001600160401b0382358181116105a4576102f590369085016112f7565b9160243582811161025a5761030d90369086016112f7565b90604435903387526020926002845260ff82892054166003811015610591576103369015611393565b338852600284528188206001908160ff198254161790558885528289208751878111610514576103708161036a8454611246565b84611419565b86601f821160011461053257908061039d928d91610527575b508160011b916000199060031b1c19161790565b90555b33895280855282892090825190878211610514576103c8826103c28554611246565b85611419565b8a8791601f8411600114610488575092610422837fabff2ec12132b3cfb66179e0b7aceee4f10a59008209c2da5801429e5d8d701099979460a0999794610459979161047d57508160011b916000199060031b1c19161790565b90555b338b526003855283828c205561044c8a5499835197889733895288015260a08701906112b7565b91858303908601526112b7565b90606083015284861660808301520390a14316906001600160401b03191617905580f35b905084015138610389565b848d52888d20909392909150601f1983168d5b8181106104ff57509261045995927fabff2ec12132b3cfb66179e0b7aceee4f10a59008209c2da5801429e5d8d70109a9895928260a09b9996106104e6575b5050811b019055610425565b85015160001960f88460031b161c1916905538806104da565b87830151845592850192918a01918a0161049b565b634e487b7160e01b8b5260418a5260248bfd5b90508a015138610389565b828c52878c20849291601f1983168e8b8e5b83831061057a575050508311610561575b5050811b0190556103a0565b8b015160001960f88460031b161c191690553880610555565b840151855588969094019392830192018b8e610544565b634e487b7160e01b895260218852602489fd5b8480fd5b5034610262576105b73661134d565b9190913385526020916002835260ff8187205416906003821015610247576105e26001809314611493565b6001600160401b03947f4528946bc802ca86c370609d87ebbb454cda4378c4728c8f47e5e592a76e70e5610621878954168451918291888633856114cf565b0390a13388528785528188209080519087821161077057610646826103c28554611246565b8690601f83116001146107115761067492918b91836101c25750508160011b916000199060031b1c19161790565b90555b33875281845286209282519185831161023457610698836101748754611246565b81601f84116001146106c757505081906101ab9388926101c25750508160011b916000199060031b1c19161790565b91909383601f198116878b52848b20948b905b888383106106f7575050501061020457505050811b0190556101ae565b8587015188559096019594850194879350908101906106da565b838b52878b208693929091601f1984168d5b8b82821061075a5750508411610741575b505050811b019055610677565b015160001960f88460031b161c19169055388080610734565b8385015186558a97909501949384019301610723565b634e487b7160e01b8a526041895260248afd5b509190346109e0576107943661134d565b9390933384526020946002865260ff838620541660038110156109cd576107bb9015611393565b33855260028652828520916001928360ff19825416179055858752838620928251936001600160401b0394858111610952576107fb8161036a8454611246565b89601f8211600114610970579080610827928b9161096557508160011b916000199060031b1c19161790565b90555b338752808852848720908251908582116109525761084c826103c28554611246565b89601f83116001146108cd5750508061089f91899a7fc8148b3f855d2456645ce00486b0f64b8185111680109832fdb7adf0024622729798999a9161047d57508160011b916000199060031b1c19161790565b90555b6108b7865495519283928688169133856114cf565b0390a14316906001600160401b03191617905580f35b601f9291921982169a848b52818b20918b905b8d821061093b575050827fc8148b3f855d2456645ce00486b0f64b8185111680109832fdb7adf00246227298999a9b9c10610922575b5050811b0190556108a2565b85015160001960f88460031b161c191690553880610916565b808684958294958b015181550194019201906108e0565b634e487b7160e01b895260418852602489fd5b905086015138610389565b828a528a8a20849291601f1983168c8e5b8282106109b6575050831161099d575b5050811b01905561082a565b87015160001960f88460031b161c191690553880610991565b838b0151855588969094019392830192018e610981565b634e487b7160e01b865260218552602486fd5b5080fd5b5034610262576020908160031936011261025e576001600160401b0391833583811161025a57610a1790369086016112f7565b3386526002825260ff838720541692600384101561024757610a3c6001809514611493565b7fc976d77388f2d03e3380bb0e46f91e6f6681ff593a5b0c2bcf9e36c9d28034b18587541682518091338252606087830152610a7b60608301876112b7565b90858301520390a13387526001835286209281519185831161023457610aa5836101748754611246565b8391601f8411600114610ad557506101ab9350879190836101c25750508160011b916000199060031b1c19161790565b8589528489209394601f198616918a91905b838310610b0b5750505090846001959493921061020457505050811b0190556101ae565b848601518755958601959481019491810191610ae7565b50346102625780600319360112610262576001600160401b0382358181116105a457610b5190369085016112f7565b91602435903386526020916002835260ff82882054166003811015610cdc57610b7a9015611393565b33875260028352818720600190600160ff198254161790558784528288209086519086821161077057610bb1826103c28554611246565b8590601f8311600114610c52575091610c06827f917eb1a6f3193a7c8b8cb76ed1e55c0efcae554277d137cdb2ccb1fc77f739e4979593608097958d9161052757508160011b916000199060031b1c19161790565b90555b3389526003835280828a2055610c30885497835195869533875286015260808501906112b7565b9183015284861660608301520390a14316906001600160401b03191617905580f35b90601f198316848c52878c20928c905b8b838310610cc657505050926080969492600192827f917eb1a6f3193a7c8b8cb76ed1e55c0efcae554277d137cdb2ccb1fc77f739e49a989610610cad575b5050811b019055610c09565b8b015160001960f88460031b161c191690553880610ca1565b8401518555938401939289019290890190610c62565b634e487b7160e01b885260218752602488fd5b8382346109e05760203660031901126109e05760209181906001600160a01b03610d17611230565b1681526003845220549051908152f35b5082346102c257806003193601126102c257506001600160401b0360209254169051908152f35b8382346109e05760209081600319360112610262576001600160a01b03610d73611230565b168352828252808320815193849181815490610d8e82611246565b9283865260019288600182169182600014610e10575050600114610dd2575b8588610dce89610dbf848a0385611280565b519282849384528301906112b7565b0390f35b87945081939291528383205b828410610df85750505082010181610dbf610dce88610dad565b8054848a018601528895508794909301928101610dde565b60ff19168882015294151560051b87019094019450859350610dbf9250610dce9150899050610dad565b508290346109e05760203660031901126109e0576001600160a01b03610e5e611230565b168252600260205260ff81832054169051916003821015610e8157602083838152f35b634e487b7160e01b815260218452602490fd5b5034610262578060031936011261026257610ead611230565b602435903385526020926002845260ff81872054166003811015610247576001610ed79114611493565b80518481018481528582526001600160401b039491808401918683118284101761077057828552815190206001600160a01b03909516808a5260038852848a205490959003610fcb575050916080917fa167dd198d0865efdcaa771495b238db14d4894ea6ffbbc7d1c7cfa2ad9a035e938289528887526000828a20610f66610f608254611246565b826113ef565b55828952600187526000828a20610f80610f608254611246565b5582895260038752888281205560028752818920600260ff19825416179055875496825193845283015233908201528385166060820152a14316906001600160401b03191617905580f35b9072496e76616c6964206c6f636b6f7574206b657960681b60846064938962461bcd60e51b855260448201526013858201520152fd5b50346102625760208060031936011261025e576001600160401b0390833582811161025a5761103390369086016112f7565b903386526002815260ff84872054166003811015610247576110559015611393565b33865260028152838620600190600160ff1982541617905586825284872091835191858311610952576110928361108c8654611246565b86611419565b81601f84116001146110fb575050916110e6827f09f79c89c4652111ed2063557968062ca788dd7125099e714ff9109e81cafec595936108b7958b9161047d57508160011b916000199060031b1c19161790565b90555b8554945191829185871690338461145e565b848a52808a209291601f198516918b915b83831061116e57505050926108b79492600192827f09f79c89c4652111ed2063557968062ca788dd7125099e714ff9109e81cafec5989610611155575b5050811b0190556110e9565b85015160001960f88460031b161c191690553880611149565b88850151865594850194938101939181019161110c565b8483346109e057602091826003193601126102c25783906001600160a01b036111ac611230565b168152600180855283822090828254926111c584611246565b9384875288600182169182600014610e105750506001146111f2578588610dce89610dbf848a0385611280565b87945081939291528383205b8284106112185750505082010181610dbf610dce88610dad565b8054848a0186015288955087949093019281016111fe565b600435906001600160a01b038216820361001c57565b90600182811c92168015611276575b602083101461126057565b634e487b7160e01b600052602260045260246000fd5b91607f1691611255565b90601f801991011681019081106001600160401b038211176112a157604052565b634e487b7160e01b600052604160045260246000fd5b919082519283825260005b8481106112e3575050826000602080949584010152601f8019910116010190565b6020818301810151848301820152016112c2565b81601f8201121561001c578035906001600160401b0382116112a1576040519261132b601f8401601f191660200185611280565b8284526020838301011161001c57816000926020809301838601378301015290565b90604060031983011261001c576001600160401b0360043581811161001c5783611379916004016112f7565b9260243591821161001c57611390916004016112f7565b90565b1561139a57565b60405162461bcd60e51b8152602060048201526016602482015275155cd95c88185b1c9958591e481858dd1a5d985d195960521b6044820152606490fd5b8181106113e3575050565b600081556001016113d8565b90601f81116113fc575050565b61141791600052601f6020600020910160051c8101906113d8565b565b9190601f811161142857505050565b611417926000526020600020906020601f840160051c83019310611454575b601f0160051c01906113d8565b9091508190611447565b9161148c6001600160401b039160409396959660018060a01b031685526060602086015260608501906112b7565b9416910152565b1561149a57565b60405162461bcd60e51b815260206004820152600d60248201526c24b730b1ba34bb32903ab9b2b960991b6044820152606490fd5b9261148c906115016060946001600160401b039498979860018060a01b031687526080602088015260808701906112b7565b9085820360408701526112b756fea2646970667358221220e81ec2161570b8cba3381c33ca47b312446e97ec7fae465b65db534e3e72ed7c64736f6c63430008180033",
    "linkReferences": {},
    "deployedLinkReferences": {}
}