{
    "_format": "hh-sol-artifact-1",
    "contractName": "ValidatorTask",
    "sourceName": "contracts/ValidatorTask.sol",
    "abi": [
        {
            "inputs": [
                {
                    "internalType": "address",
                    "name": "_usersContractAddress",
                    "type": "address"
                }
            ],
            "stateMutability": "nonpayable",
            "type": "constructor"
        },
        {
            "anonymous": false,
            "inputs": [
                {
                    "indexed": false,
                    "internalType": "uint256",
                    "name": "taskIndex",
                    "type": "uint256"
                },
                {
                    "indexed": false,
                    "internalType": "bytes32",
                    "name": "taskHash",
                    "type": "bytes32"
                },
                {
                    "indexed": false,
                    "internalType": "uint256",
                    "name": "numRequirements",
                    "type": "uint256"
                },
                {
                    "indexed": false,
                    "internalType": "uint256",
                    "name": "deadline",
                    "type": "uint256"
                },
                {
                    "indexed": false,
                    "internalType": "bool",
                    "name": "blockValidationSchedule",
                    "type": "bool"
                },
                {
                    "indexed": false,
                    "internalType": "uint256",
                    "name": "evaluationDelay",
                    "type": "uint256"
                },
                {
                    "indexed": false,
                    "internalType": "uint256",
                    "name": "evaluationTime",
                    "type": "uint256"
                },
                {
                    "indexed": false,
                    "internalType": "address[]",
                    "name": "validators",
                    "type": "address[]"
                },
                {
                    "indexed": false,
                    "internalType": "uint256",
                    "name": "validatorComission",
                    "type": "uint256"
                },
                {
                    "indexed": false,
                    "internalType": "address",
                    "name": "manager",
                    "type": "address"
                },
                {
                    "indexed": false,
                    "internalType": "uint64",
                    "name": "lastInteractionBlockIndex",
                    "type": "uint64"
                }
            ],
            "name": "AddTask",
            "type": "event"
        },
        {
            "anonymous": false,
            "inputs": [
                {
                    "indexed": false,
                    "internalType": "uint256",
                    "name": "taskIndex",
                    "type": "uint256"
                },
                {
                    "indexed": false,
                    "internalType": "uint256",
                    "name": "submissionIndex",
                    "type": "uint256"
                },
                {
                    "indexed": false,
                    "internalType": "address",
                    "name": "validatorAddress",
                    "type": "address"
                },
                {
                    "indexed": false,
                    "internalType": "uint256[]",
                    "name": "unmetRequirementsEvalution",
                    "type": "uint256[]"
                },
                {
                    "indexed": false,
                    "internalType": "uint64",
                    "name": "lastInteractionBlockIndex",
                    "type": "uint64"
                }
            ],
            "name": "EvaluateTask",
            "type": "event"
        },
        {
            "anonymous": false,
            "inputs": [
                {
                    "indexed": false,
                    "internalType": "uint256",
                    "name": "taskIndex",
                    "type": "uint256"
                },
                {
                    "indexed": false,
                    "internalType": "address",
                    "name": "funderAddress",
                    "type": "address"
                },
                {
                    "indexed": false,
                    "internalType": "uint256",
                    "name": "reward",
                    "type": "uint256"
                },
                {
                    "indexed": false,
                    "internalType": "uint256",
                    "name": "totalReward",
                    "type": "uint256"
                },
                {
                    "indexed": false,
                    "internalType": "uint64",
                    "name": "lastInteractionBlockIndex",
                    "type": "uint64"
                }
            ],
            "name": "FundTask",
            "type": "event"
        },
        {
            "anonymous": false,
            "inputs": [
                {
                    "indexed": false,
                    "internalType": "uint256",
                    "name": "taskIndex",
                    "type": "uint256"
                },
                {
                    "indexed": false,
                    "internalType": "uint256",
                    "name": "submissionIndex",
                    "type": "uint256"
                },
                {
                    "indexed": false,
                    "internalType": "bytes32",
                    "name": "submissionHash",
                    "type": "bytes32"
                },
                {
                    "indexed": false,
                    "internalType": "address",
                    "name": "workerAddress",
                    "type": "address"
                },
                {
                    "indexed": false,
                    "internalType": "uint64",
                    "name": "lastInteractionBlockIndex",
                    "type": "uint64"
                }
            ],
            "name": "SubmitTask",
            "type": "event"
        },
        {
            "anonymous": false,
            "inputs": [
                {
                    "indexed": false,
                    "internalType": "uint256",
                    "name": "taskIndex",
                    "type": "uint256"
                },
                {
                    "indexed": false,
                    "internalType": "uint256",
                    "name": "submissionIndex",
                    "type": "uint256"
                },
                {
                    "indexed": false,
                    "internalType": "address",
                    "name": "workerAddress",
                    "type": "address"
                },
                {
                    "indexed": false,
                    "internalType": "uint256",
                    "name": "weiAmount",
                    "type": "uint256"
                },
                {
                    "indexed": false,
                    "internalType": "bool",
                    "name": "defaultCompletion",
                    "type": "bool"
                },
                {
                    "indexed": false,
                    "internalType": "uint64",
                    "name": "lastInteractionBlockIndex",
                    "type": "uint64"
                }
            ],
            "name": "WithdrawSubmissionCompletion",
            "type": "event"
        },
        {
            "anonymous": false,
            "inputs": [
                {
                    "indexed": false,
                    "internalType": "uint256",
                    "name": "taskIndex",
                    "type": "uint256"
                },
                {
                    "indexed": false,
                    "internalType": "uint256",
                    "name": "submissionIndex",
                    "type": "uint256"
                },
                {
                    "indexed": false,
                    "internalType": "address",
                    "name": "workerAddress",
                    "type": "address"
                },
                {
                    "indexed": false,
                    "internalType": "uint256",
                    "name": "withdrawAmount",
                    "type": "uint256"
                },
                {
                    "indexed": false,
                    "internalType": "uint64",
                    "name": "lastInteractionBlockIndex",
                    "type": "uint64"
                }
            ],
            "name": "WithdrawSubmissionUnevaluated",
            "type": "event"
        },
        {
            "anonymous": false,
            "inputs": [
                {
                    "indexed": false,
                    "internalType": "uint256",
                    "name": "taskIndex",
                    "type": "uint256"
                },
                {
                    "indexed": false,
                    "internalType": "address",
                    "name": "withdrawAddress",
                    "type": "address"
                },
                {
                    "indexed": false,
                    "internalType": "uint256",
                    "name": "withdrawAmount",
                    "type": "uint256"
                },
                {
                    "indexed": false,
                    "internalType": "uint64",
                    "name": "lastInteractionBlockIndex",
                    "type": "uint64"
                }
            ],
            "name": "WithdrawTask",
            "type": "event"
        },
        {
            "inputs": [
                {
                    "internalType": "bytes32",
                    "name": "_taskHash",
                    "type": "bytes32"
                },
                {
                    "internalType": "uint256",
                    "name": "_numRequirements",
                    "type": "uint256"
                },
                {
                    "internalType": "uint256",
                    "name": "_secondsToDeadline",
                    "type": "uint256"
                },
                {
                    "internalType": "bool",
                    "name": "_blockValidationSchedule",
                    "type": "bool"
                },
                {
                    "internalType": "uint16",
                    "name": "_evaluationDelay",
                    "type": "uint16"
                },
                {
                    "internalType": "uint256",
                    "name": "_evaluationTime",
                    "type": "uint256"
                },
                {
                    "internalType": "address[]",
                    "name": "_validators",
                    "type": "address[]"
                },
                {
                    "internalType": "uint256",
                    "name": "_validatorComission",
                    "type": "uint256"
                }
            ],
            "name": "addTask",
            "outputs": [],
            "stateMutability": "payable",
            "type": "function"
        },
        {
            "inputs": [
                {
                    "internalType": "uint256",
                    "name": "_taskIndex",
                    "type": "uint256"
                },
                {
                    "internalType": "uint256",
                    "name": "_submissionIndex",
                    "type": "uint256"
                },
                {
                    "internalType": "uint256",
                    "name": "_validatorIndex",
                    "type": "uint256"
                },
                {
                    "internalType": "uint256[]",
                    "name": "_unmetRequirementsEvalution",
                    "type": "uint256[]"
                }
            ],
            "name": "evaluateTask",
            "outputs": [],
            "stateMutability": "payable",
            "type": "function"
        },
        {
            "inputs": [
                {
                    "internalType": "uint256",
                    "name": "_taskIndex",
                    "type": "uint256"
                }
            ],
            "name": "fundTask",
            "outputs": [],
            "stateMutability": "payable",
            "type": "function"
        },
        {
            "inputs": [
                {
                    "internalType": "uint256",
                    "name": "_taskIndex",
                    "type": "uint256"
                }
            ],
            "name": "getBlockValidationSchedule",
            "outputs": [
                {
                    "internalType": "bool",
                    "name": "",
                    "type": "bool"
                }
            ],
            "stateMutability": "view",
            "type": "function"
        },
        {
            "inputs": [
                {
                    "internalType": "uint256",
                    "name": "_taskIndex",
                    "type": "uint256"
                }
            ],
            "name": "getCompletionSubmissionIndex",
            "outputs": [
                {
                    "internalType": "uint256",
                    "name": "",
                    "type": "uint256"
                }
            ],
            "stateMutability": "view",
            "type": "function"
        },
        {
            "inputs": [
                {
                    "internalType": "uint256",
                    "name": "_taskIndex",
                    "type": "uint256"
                }
            ],
            "name": "getContributionTotalWei",
            "outputs": [
                {
                    "internalType": "uint256",
                    "name": "",
                    "type": "uint256"
                }
            ],
            "stateMutability": "view",
            "type": "function"
        },
        {
            "inputs": [
                {
                    "internalType": "uint256",
                    "name": "_taskIndex",
                    "type": "uint256"
                }
            ],
            "name": "getDeadline",
            "outputs": [
                {
                    "internalType": "uint64",
                    "name": "",
                    "type": "uint64"
                }
            ],
            "stateMutability": "view",
            "type": "function"
        },
        {
            "inputs": [
                {
                    "internalType": "uint256",
                    "name": "_taskIndex",
                    "type": "uint256"
                }
            ],
            "name": "getEvaluatedSubmissionsCount",
            "outputs": [
                {
                    "internalType": "uint64",
                    "name": "",
                    "type": "uint64"
                }
            ],
            "stateMutability": "view",
            "type": "function"
        },
        {
            "inputs": [
                {
                    "internalType": "uint256",
                    "name": "_taskIndex",
                    "type": "uint256"
                }
            ],
            "name": "getManagerAddress",
            "outputs": [
                {
                    "internalType": "address",
                    "name": "",
                    "type": "address"
                }
            ],
            "stateMutability": "view",
            "type": "function"
        },
        {
            "inputs": [
                {
                    "internalType": "uint256",
                    "name": "_taskIndex",
                    "type": "uint256"
                }
            ],
            "name": "getNextSlotTime",
            "outputs": [
                {
                    "internalType": "uint64",
                    "name": "",
                    "type": "uint64"
                }
            ],
            "stateMutability": "view",
            "type": "function"
        },
        {
            "inputs": [
                {
                    "internalType": "uint256",
                    "name": "_taskIndex",
                    "type": "uint256"
                }
            ],
            "name": "getRequirementsCount",
            "outputs": [
                {
                    "internalType": "uint64",
                    "name": "",
                    "type": "uint64"
                }
            ],
            "stateMutability": "view",
            "type": "function"
        },
        {
            "inputs": [
                {
                    "internalType": "uint256",
                    "name": "_taskIndex",
                    "type": "uint256"
                },
                {
                    "internalType": "uint256",
                    "name": "_submissionIndex",
                    "type": "uint256"
                }
            ],
            "name": "getSubmissionHash",
            "outputs": [
                {
                    "internalType": "bytes32",
                    "name": "",
                    "type": "bytes32"
                }
            ],
            "stateMutability": "view",
            "type": "function"
        },
        {
            "inputs": [
                {
                    "internalType": "uint256",
                    "name": "_taskIndex",
                    "type": "uint256"
                },
                {
                    "internalType": "uint256",
                    "name": "_submissionIndex",
                    "type": "uint256"
                }
            ],
            "name": "getSubmissionRejected",
            "outputs": [
                {
                    "internalType": "bool",
                    "name": "",
                    "type": "bool"
                }
            ],
            "stateMutability": "view",
            "type": "function"
        },
        {
            "inputs": [
                {
                    "internalType": "uint256",
                    "name": "_taskIndex",
                    "type": "uint256"
                },
                {
                    "internalType": "uint256",
                    "name": "_submissionIndex",
                    "type": "uint256"
                }
            ],
            "name": "getSubmissionValidationEnd",
            "outputs": [
                {
                    "internalType": "uint64",
                    "name": "",
                    "type": "uint64"
                }
            ],
            "stateMutability": "view",
            "type": "function"
        },
        {
            "inputs": [
                {
                    "internalType": "uint256",
                    "name": "_taskIndex",
                    "type": "uint256"
                },
                {
                    "internalType": "uint256",
                    "name": "_submissionIndex",
                    "type": "uint256"
                }
            ],
            "name": "getSubmissionValidationStart",
            "outputs": [
                {
                    "internalType": "uint64",
                    "name": "",
                    "type": "uint64"
                }
            ],
            "stateMutability": "view",
            "type": "function"
        },
        {
            "inputs": [
                {
                    "internalType": "uint256",
                    "name": "_taskIndex",
                    "type": "uint256"
                },
                {
                    "internalType": "uint256",
                    "name": "_submissionIndex",
                    "type": "uint256"
                }
            ],
            "name": "getSubmissionWithdrawn",
            "outputs": [
                {
                    "internalType": "bool",
                    "name": "",
                    "type": "bool"
                }
            ],
            "stateMutability": "view",
            "type": "function"
        },
        {
            "inputs": [
                {
                    "internalType": "uint256",
                    "name": "_taskIndex",
                    "type": "uint256"
                },
                {
                    "internalType": "uint256",
                    "name": "_submissionIndex",
                    "type": "uint256"
                }
            ],
            "name": "getSubmissionWorkerAddress",
            "outputs": [
                {
                    "internalType": "address",
                    "name": "",
                    "type": "address"
                }
            ],
            "stateMutability": "view",
            "type": "function"
        },
        {
            "inputs": [
                {
                    "internalType": "uint256",
                    "name": "_taskIndex",
                    "type": "uint256"
                }
            ],
            "name": "getSubmissionsCount",
            "outputs": [
                {
                    "internalType": "uint64",
                    "name": "",
                    "type": "uint64"
                }
            ],
            "stateMutability": "view",
            "type": "function"
        },
        {
            "inputs": [
                {
                    "internalType": "uint256",
                    "name": "_taskIndex",
                    "type": "uint256"
                }
            ],
            "name": "getTaskComplete",
            "outputs": [
                {
                    "internalType": "bool",
                    "name": "",
                    "type": "bool"
                }
            ],
            "stateMutability": "view",
            "type": "function"
        },
        {
            "inputs": [
                {
                    "internalType": "uint256",
                    "name": "_taskIndex",
                    "type": "uint256"
                }
            ],
            "name": "getTaskHash",
            "outputs": [
                {
                    "internalType": "bytes32",
                    "name": "",
                    "type": "bytes32"
                }
            ],
            "stateMutability": "view",
            "type": "function"
        },
        {
            "inputs": [
                {
                    "internalType": "uint256",
                    "name": "_taskIndex",
                    "type": "uint256"
                }
            ],
            "name": "getValidationDelay",
            "outputs": [
                {
                    "internalType": "uint16",
                    "name": "",
                    "type": "uint16"
                }
            ],
            "stateMutability": "view",
            "type": "function"
        },
        {
            "inputs": [
                {
                    "internalType": "uint256",
                    "name": "_taskIndex",
                    "type": "uint256"
                }
            ],
            "name": "getValidationTime",
            "outputs": [
                {
                    "internalType": "uint64",
                    "name": "",
                    "type": "uint64"
                }
            ],
            "stateMutability": "view",
            "type": "function"
        },
        {
            "inputs": [
                {
                    "internalType": "uint256",
                    "name": "_taskIndex",
                    "type": "uint256"
                }
            ],
            "name": "getValidatorComission",
            "outputs": [
                {
                    "internalType": "uint256",
                    "name": "",
                    "type": "uint256"
                }
            ],
            "stateMutability": "view",
            "type": "function"
        },
        {
            "inputs": [
                {
                    "internalType": "uint256",
                    "name": "_taskIndex",
                    "type": "uint256"
                }
            ],
            "name": "getValidators",
            "outputs": [
                {
                    "internalType": "address[]",
                    "name": "",
                    "type": "address[]"
                }
            ],
            "stateMutability": "view",
            "type": "function"
        },
        {
            "inputs": [
                {
                    "internalType": "uint256",
                    "name": "_taskIndex",
                    "type": "uint256"
                },
                {
                    "internalType": "address",
                    "name": "_contributorAddress",
                    "type": "address"
                }
            ],
            "name": "getWeiContribution",
            "outputs": [
                {
                    "internalType": "uint256",
                    "name": "",
                    "type": "uint256"
                }
            ],
            "stateMutability": "view",
            "type": "function"
        },
        {
            "inputs": [],
            "name": "lastInteractionBlockIndex",
            "outputs": [
                {
                    "internalType": "uint64",
                    "name": "",
                    "type": "uint64"
                }
            ],
            "stateMutability": "view",
            "type": "function"
        },
        {
            "inputs": [
                {
                    "internalType": "uint256",
                    "name": "_taskIndex",
                    "type": "uint256"
                },
                {
                    "internalType": "bytes32",
                    "name": "_submissionHash",
                    "type": "bytes32"
                }
            ],
            "name": "submitTask",
            "outputs": [],
            "stateMutability": "payable",
            "type": "function"
        },
        {
            "inputs": [
                {
                    "internalType": "uint256",
                    "name": "_taskIndex",
                    "type": "uint256"
                }
            ],
            "name": "taskDefaulted",
            "outputs": [
                {
                    "internalType": "bool",
                    "name": "",
                    "type": "bool"
                }
            ],
            "stateMutability": "view",
            "type": "function"
        },
        {
            "inputs": [
                {
                    "internalType": "uint256",
                    "name": "",
                    "type": "uint256"
                }
            ],
            "name": "tasks",
            "outputs": [
                {
                    "internalType": "bytes32",
                    "name": "taskHash",
                    "type": "bytes32"
                },
                {
                    "internalType": "uint64",
                    "name": "requirementsCount",
                    "type": "uint64"
                },
                {
                    "internalType": "uint64",
                    "name": "evaluationTime",
                    "type": "uint64"
                },
                {
                    "internalType": "uint64",
                    "name": "deadline",
                    "type": "uint64"
                },
                {
                    "internalType": "uint64",
                    "name": "nextSlotTime",
                    "type": "uint64"
                },
                {
                    "internalType": "uint64",
                    "name": "submissionsCount",
                    "type": "uint64"
                },
                {
                    "internalType": "uint64",
                    "name": "evaluatedSubmissionsCount",
                    "type": "uint64"
                },
                {
                    "internalType": "bool",
                    "name": "blockValidationSchedule",
                    "type": "bool"
                },
                {
                    "internalType": "uint16",
                    "name": "evaluationDelay",
                    "type": "uint16"
                },
                {
                    "internalType": "bool",
                    "name": "taskComplete",
                    "type": "bool"
                },
                {
                    "internalType": "address",
                    "name": "managerAddress",
                    "type": "address"
                },
                {
                    "internalType": "uint256",
                    "name": "submissionCompletionIndex",
                    "type": "uint256"
                },
                {
                    "internalType": "uint256",
                    "name": "validatorComission",
                    "type": "uint256"
                },
                {
                    "internalType": "uint256",
                    "name": "contributionTotalWei",
                    "type": "uint256"
                }
            ],
            "stateMutability": "view",
            "type": "function"
        },
        {
            "inputs": [],
            "name": "tasksCount",
            "outputs": [
                {
                    "internalType": "uint64",
                    "name": "",
                    "type": "uint64"
                }
            ],
            "stateMutability": "view",
            "type": "function"
        },
        {
            "inputs": [],
            "name": "usersContract",
            "outputs": [
                {
                    "internalType": "contract Users",
                    "name": "",
                    "type": "address"
                }
            ],
            "stateMutability": "view",
            "type": "function"
        },
        {
            "inputs": [
                {
                    "internalType": "uint256",
                    "name": "_taskIndex",
                    "type": "uint256"
                },
                {
                    "internalType": "uint256",
                    "name": "_submissionIndex",
                    "type": "uint256"
                }
            ],
            "name": "withdrawSubmissionCompletion",
            "outputs": [],
            "stateMutability": "payable",
            "type": "function"
        },
        {
            "inputs": [
                {
                    "internalType": "uint256",
                    "name": "_taskIndex",
                    "type": "uint256"
                },
                {
                    "internalType": "uint256",
                    "name": "_submissionIndex",
                    "type": "uint256"
                }
            ],
            "name": "withdrawSubmissionUnevaluated",
            "outputs": [],
            "stateMutability": "payable",
            "type": "function"
        },
        {
            "inputs": [
                {
                    "internalType": "uint256",
                    "name": "_taskIndex",
                    "type": "uint256"
                }
            ],
            "name": "withdrawTask",
            "outputs": [],
            "stateMutability": "payable",
            "type": "function"
        }
    ],
    "bytecode": "0x60803461007457601f61205738819003918201601f19168301916001600160401b038311848410176100795780849260209460405283398101031261007457516001600160a01b0381169081900361007457600280546001600160a01b031916919091179055604051611fc790816100908239f35b600080fd5b634e487b7160e01b600052604160045260246000fdfe608080604052600436101561001357600080fd5b60003560e01c90816308768d5d14611a0b57508063091b682d146119d35780630e9b194c146119925780631401346214611930578063142ebf3c14611907578063149fec32146118d05780632566fd21146118805780632df145e214611604578063449fc40b146115c95780634548ff4d1461140a578063471f40fb146113795780634971feba1461134a578063590a359d14610f435780635c42229514610f0b57806362e066b114610edf57806368bbf48d14610eb557806377d2df1714610e775780637cec1c7714610e4f5780638286227514610e145780638c71abcc14610de25780638d97767214610d0857806390580d0c14610cd15780639815fb8714610c985780639b6af4f614610c57578063a3f7c55c14610a79578063aac8047214610a42578063b7c7ede614610a13578063bb6a0f07146109ec578063cd026a44146105ef578063d1ff21c2146104b9578063dce5f1241461048a578063dd5a6b4a1461044f578063dea6c04b146101dc5763e2847ab21461019557600080fd5b346101d7576101a336611a3d565b90600052600160205260096040600020019060005260205260206001600160401b0360026040600020015416604051908152f35b600080fd5b6101e536611a3d565b6001600160401b03916101fd83600054168210611b3a565b80600052600160205260406000209160028301549361021f8186168310611d7a565b8160005260098401602052604060002060ff8660981c168015610440575b156103e5576002810195865460ff8160401c166103a05760ff6102649160481c1615611dd2565b61026d85611d04565b15610339577fda939851bb1fc5cac9a38c8425c43d91c1e63d9c282c522c3520cace63cee3a1956102c084936102b060a098979660069560401c16871415611e6a565b600180891b039054163314611e1e565b016102dc60008080808554335af16102d6611c6f565b50611cae565b549060005460401c1691604051938452602084015233604084015260608301526080820152a1805460ff60481b1916600160481b17905560008054600160401b600160801b0319164360401b600160401b600160801b0316179055005b60401c8216600019019392919081851161038a577fda939851bb1fc5cac9a38c8425c43d91c1e63d9c282c522c3520cace63cee3a1956102c06006926103858560a09916871415611e6a565b6102b0565b634e487b7160e01b600052601160045260246000fd5b60405162461bcd60e51b815260206004820152601b60248201527f5375626d697373696f6e20616c72656164792072656a656374656400000000006044820152606490fd5b60405162461bcd60e51b815260206004820152602d60248201527f5769746864726177206f6e6c7920617661696c61626c6520616674657220746160448201526c39b59031b7b6b83632ba34b7b760991b6064820152608490fd5b5061044a84611d04565b61023d565b346101d75760203660031901126101d757600435600052600160205260206001600160401b0360026040600020015460401c16604051908152f35b346101d75760203660031901126101d75760043560005260016020526020600860406000200154604051908152f35b6020806003193601126101d7577f71024cd21a7b2890e802b5a4e54b31fb816860e53d8e52ced4e06f0dd90ee4ce60a06004356001600160401b0361050381600054168310611b3a565b81600052600180865261052460ff60026040600020015460981c1615611b81565b8260005280865261054382826040600020015460801c16421115611bc6565b61055561054f84611d04565b15611c0d565b826000528086526007604060002001336000528652604060002061057a348254611c4a565b9055826000528086526008604060002001610596348254611c4a565b905582600052855260086040600020015460005495604051938452339084015234604084015260608301528460401c166080820152a1600160401b600160801b0319164360401b600160401b600160801b031617600055005b60803660031901126101d7576001600160401b03602460643581356004356044358584116101d757366023850112156101d75783600401359161063183611ab1565b9461063f6040519687611a90565b83865260209081870188819660051b830101913683116101d75789849101915b8383106109dc575050505061067988600054168310611b3a565b8160005260019283825261069b60ff60026040600020015460981c1615611b81565b826000528382526040600020906106b461054f85611d04565b6005820180548210156109c757600090815283902001546001600160a01b03163303610979576002810197868a8a5460401c160361093b57866000526009820183526002604060002001908154908b82168c428210918261091b575b5050156108c457868c8186015416018c81116108af578a8d6107329216611ef6565b1561087257506000806006610780958295839561074e8f611f5f565b851461085a5750508d5460ff60981b1916600160981b178e55600481018c9055969897965b0154335af16102d6611c6f565b600054956040519560a087019287528487015233604087015260a060608701525180915260c08501939260005b828110610847576108458961081f8c8b7f722e8f7ec983ead98ec99796b361429a11aba8ffb7e22ce7af8307688037b0308c808d858560401c1660808301520390a1600160401b600160801b03191643604090811b600160401b600160801b0316919091176000558354901c16611c57565b8154600160401b600160801b03191660409190911b600160401b600160801b0316179055565b005b84518652948101949381019383016107ad565b60ff60401b1916600160401b17905596989796610773565b8460176064926040519262461bcd60e51b8452600484015282015276496e76616c6964206576616c756174696f6e206461746160481b6044820152fd5b50634e487b7160e01b60009081526011600452fd5b84602b6084926040519262461bcd60e51b845260048401528201527f56616c69646174696f6e206e6f7420636f6d706c657465642077697468696e2060448201526a74696d652077696e646f7760a81b6064820152fd5b816109309293508a88015460401c1690611ac8565b164211158c8e610710565b8260186064926040519262461bcd60e51b8452600484015282015277092dcecc2d8d2c840e6eac4dad2e6e6d2dedc40d2dcc8caf60431b6044820152fd5b60405162461bcd60e51b8152600481018390526021818a01527f56616c696461746f7220646f6573206e6f74206d6174636820657870656374656044820152601960fa1b6064820152608490fd5b89634e487b7160e01b60005260326004526000fd5b823581529181019184910161065f565b346101d75760003660031901126101d75760206001600160401b0360005416604051908152f35b346101d75760203660031901126101d75760043560005260016020526020600460406000200154604051908152f35b346101d75760203660031901126101d7576004356000526001602052602060018060a01b0360036040600020015416604051908152f35b610a8236611a3d565b6001600160401b03610a9981600054168410611b3a565b8260005260016020526040600020926002840192835492610abd8185168310611d7a565b81600052600986016020526040600020946002860196610ae460ff895460481c1615611dd2565b610aed85611d04565b9586610c47575b90869392916008820192835498610c16575b50506004015484148015610c0f575b15610bca57610b66600080808060c09a610b5b7f62c0df0b8e7fac11fd2608908d0ea180856bb594659cb8d78a3593b717c957119d60018060a01b039054163314611e1e565b335af16102d6611c6f565b549060005460401c1692604051948552602085015233604085015260608401521515608083015260a0820152a1805460ff60481b1916600160481b17905560008054600160401b600160801b0319164360401b600160401b600160801b0316179055005b60405162461bcd60e51b815260206004820152601d60248201527f556e617574686f72697a6564207375626d697373696f6e20696e6465780000006044820152606490fd5b5082610b15565b610c298392996006600495015490611c4a565b60ff60981b19909916600160981b179055808201869055908a610b06565b604081901c841685149650610af4565b346101d757610c6536611a3d565b906000526001602052600960406000200190600052602052602060ff60026040600020015460401c166040519015158152f35b346101d757610ca636611a3d565b9060005260016020526009604060002001906000526020526020600160406000200154604051908152f35b346101d75760203660031901126101d7576004356000526001602052602060ff60026040600020015460981c166040519015158152f35b346101d75760203660031901126101d75760043560005260016020526101c060406000208054906001810154906001600160401b03600282015460ff60018060a01b0360038501541691600485015493600860068701549601549660405198895281811660208a0152818160401c1660408a0152818160801c1660608a015260c01c608089015280821660a08901528160401c1660c0880152818160801c16151560e088015261ffff8160881c1661010088015260981c1615156101208601526101408501526101608401526101808301526101a0820152f35b346101d75760203660031901126101d7576004356000526001602052602060016040600020015460c01c604051908152f35b346101d75760203660031901126101d757600435600052600160205260206001600160401b0360016040600020015460801c16604051908152f35b346101d75760203660031901126101d7576020610e6d600435611d04565b6040519015158152f35b346101d757610e8536611a3d565b906000526001602052600960406000200190600052602052602060018060a01b0360406000205416604051908152f35b346101d75760003660031901126101d75760206001600160401b0360005460401c16604051908152f35b346101d75760203660031901126101d75760043560005260016020526020604060002054604051908152f35b346101d75760203660031901126101d757600435600052600160205260206001600160401b0360026040600020015416604051908152f35b6101003660031901126101d75760643580151581036101d75761ffff60843516608435036101d7576001600160401b0360c435116101d75736602360c4350112156101d75760c43560040135610f9881611ab1565b610fa56040519182611a90565b8181526020810180923660248260051b60c4350101116101d757602460c43501915b60248260051b60c4350101831061132857505060025460405163eb0eb8ab60e01b81523360048201529150602090829060249082906001600160a01b03165afa801561131c5761101f916000916112ed575b50611afb565b604435156112a8576001600160401b03600054166000526001602052604060002091600435835560018301546001600160401b0360801b61106260443542611c4a565b60801b16906001600160401b03602435169077ffffffffffffffff0000000000000000ffffffffffffffff19161717600184015560028301805460ff60801b86151560801b169061ffff60881b60843560881b169062ffffff60801b1916171790558151906001600160401b03821161129257600160401b8211611292576005840154826005860155808310611265575b5060058401600052602060002060005b838110611248576003860180546001600160a01b0319163390811790915560e435600688015560009081526007870160205260409081902034908190556008880155600187018054600160401b600160801b03191660a43590921b600160401b600160801b0316919091179055866001600160401b03611223887fb5d3b669be28ff99b9d1f61ab03efd5cb70d68fa3275f9df2e29a3c914f649d689600054956111ff866001818a1696015460801c1692604051938493610160918886526004356020870152602435604087015260608601521515608085015261ffff6084351660a085015260a43560c08501528060e0850152830190611a53565b60e43561010083015233610120830152868860401c166101408301520390a1611c57565b6001600160801b03199092164360401b600160401b600160801b031617911617600055005b82516001600160a01b031681830155602090920191600101611103565b600585016000526020600020908382015b81830181106112865750506110f3565b60008155600101611276565b634e487b7160e01b600052604160045260246000fd5b60405162461bcd60e51b815260206004820152601e60248201527f446561646c696e65206d75737420626520696e207468652066757475726500006044820152606490fd5b61130f915060203d602011611315575b6113078183611a90565b810190611ae3565b85611019565b503d6112fd565b6040513d6000823e3d90fd5b8235906001600160a01b03821682036101d75790815260209283019201610fc7565b346101d75760203660031901126101d75760043560005260016020526020600660406000200154604051908152f35b346101d7576020806003193601126101d757600435600052600190600181526005604060002001916040519081938491848254948581520191600052846000209060005b868682106113eb5785906113d382870383611a90565b6113e7604051928284938452830190611a53565b0390f35b83546001600160a01b03168552889550909301929181019181016113bd565b6020806003193601126101d757600435906001600160401b039161143383600054168210611b3a565b806000526001825260406000206001810154848160801c164211156115845760c01c421115611535577f65d01933f421c5e8a5c016e9cd4ec60637bb4c1650e0310edaeb8fe0e60f0e869160078260ff6002608095015460981c161580611520575b61149e90611b81565b0194336000528585526114bf60008080806040812054335af16102d6611c6f565b336000528585526040600020549060005460401c1690604051928352338684015260408301526060820152a133600090815291905260408082208290558154600160401b600160801b0319164390911b600160401b600160801b0316179055005b5061149e61152d84611d04565b159050611495565b60405162461bcd60e51b815260048101849052602160248201527f4d757374207761697420666f722070656e64696e67207375626d697373696f6e6044820152607360f81b6064820152608490fd5b60405162461bcd60e51b815260048101859052601b60248201527f4d757374207761697420666f72207461736b20646561646c696e6500000000006044820152606490fd5b346101d75760203660031901126101d757600435600052600160205260206001600160401b0360016040600020015460401c16604051908152f35b60403660031901126101d7576004356024359060018060a01b036002541690604051809263eb0eb8ab60e01b825233600483015281602460209586935afa801561131c57611659916000916118695750611afb565b6001600160401b039161167183600054168310611b3a565b816000526001815261169160ff60026040600020015460981c1615611b81565b81600052600181526040600020916006830154340361180f5760a07ff96cb6345b0b017fa978a2091f5d142c84d30a00515b84b5d246fdbb927f9eb99160018501968060018954996116ea8a8c60801c16421115611bc6565b6116f661054f86611d04565b600960028a019b8c549060ff61171361ffff8460881c1642611c4a565b9260801c16156118085760c01c818110156118005750995b86600052838a528b6002604060002001541660005201885260406000209060028201996001600160401b03199a8c82168c8254161790558b6117808354926001600160401b0360c01b928460401c1690611c4a565b60c01b1690848060c01b0316179055338280881b0319825416178155015586885416600054956040519384528301526040820152336060820152858460401c166080820152a1600160401b600160801b0319164360401b600160401b600160801b0316176000558254916117f5818416611c57565b169116179055600080f35b90509961172b565b509961172b565b60405162461bcd60e51b815260048101839052602c60248201527f496e76616c6964207461736b207375626d697373696f6e2076616c696461746f60448201526b391031b7b6b6b4b9b9b4b7b760a11b6064820152608490fd5b61130f9150843d8611611315576113078183611a90565b346101d75760403660031901126101d7576024356001600160a01b038116908190036101d75760043560005260016020526007604060002001906000526020526020604060002054604051908152f35b346101d75760203660031901126101d7576004356000526001602052602060ff60026040600020015460801c166040519015158152f35b346101d75760003660031901126101d7576002546040516001600160a01b039091168152602090f35b346101d757602061194036611a3d565b816000526001835260096040600020019060005282526119896001600160401b0391826002604060002001541690600052600184528260016040600020015460401c1690611ac8565b60405191168152f35b346101d7576119a036611a3d565b906000526001602052600960406000200190600052602052602060ff60026040600020015460481c166040519015158152f35b346101d75760203660031901126101d757600435600052600160205260206001600160401b0360016040600020015416604051908152f35b346101d75760203660031901126101d7576020906004356000526001825261ffff60026040600020015460881c168152f35b60409060031901126101d7576004359060243590565b90815180825260208080930193019160005b828110611a73575050505090565b83516001600160a01b031685529381019392810192600101611a65565b90601f801991011681019081106001600160401b0382111761129257604052565b6001600160401b0381116112925760051b60200190565b9190916001600160401b038080941691160191821161038a57565b908160209103126101d7575180151581036101d75790565b15611b0257565b60405162461bcd60e51b815260206004820152601060248201526f125b9858dd1a5d99481858d8dbdd5b9d60821b6044820152606490fd5b15611b4157565b60405162461bcd60e51b81526020600482015260186024820152775461736b20696e646578206f7574206f6620626f756e647360401b6044820152606490fd5b15611b8857565b60405162461bcd60e51b815260206004820152601660248201527515185cdac8185b1c9958591e4818dbdb5c1b195d195960521b6044820152606490fd5b15611bcd57565b60405162461bcd60e51b815260206004820152601860248201527715185cdac8191958591b1a5b99481a185cc81c185cdcd95960421b6044820152606490fd5b15611c1457565b60405162461bcd60e51b815260206004820152600e60248201526d15185cdac8191959985d5b1d195960921b6044820152606490fd5b9190820180921161038a57565b6001600160401b0380911690811461038a5760010190565b3d15611ca9573d906001600160401b0382116112925760405191611c9d601f8201601f191660200184611a90565b82523d6000602084013e565b606090565b15611cb557565b60405162461bcd60e51b815260206004820152602160248201527f4572726f72207769746864726177696e672066756e64732066726f6d207461736044820152606b60f81b6064820152608490fd5b6000526001602052604060002060028101546001600160401b03611d53818360401c169382841685109460005260098101602052826001816002604060002001541692015460401c1690611ac8565b16421182611d72575b5081611d66575090565b60ff915060981c161590565b915038611d5c565b15611d8157565b60405162461bcd60e51b815260206004820152602360248201527f5461736b207375626d697373696f6e20696e646578206f7574206f6620626f756044820152626e647360e81b6064820152608490fd5b15611dd957565b60405162461bcd60e51b815260206004820152601c60248201527f5375626d697373696f6e20616c72656164792077697468647261776e000000006044820152606490fd5b15611e2557565b60405162461bcd60e51b815260206004820152601b60248201527f556e617574686f72697a656420776f726b6572206164647265737300000000006044820152606490fd5b15611e7157565b60405162461bcd60e51b815260206004820152602d60248201527f43616e206e6f7420776974686472617720726577617264207468726f7567682060448201526c3a3434b990333ab731ba34b7b760991b6064820152608490fd5b8051821015611ee05760209160051b010190565b634e487b7160e01b600052603260045260246000fd5b6000199080820181811161038a5760081c906001820180921161038a578351809203611f565760ff16918215611f4d57810190811161038a576001611f3c921b92611ecc565b511015611f4857600190565b600090565b50505050600190565b50505050600090565b6000805b8251811015611f8957611f768184611ecc565b51611f8357600101611f63565b50905090565b50505060019056fea2646970667358221220c1b741c2d80c1ca38895307be0d708e1cae299be610f0bc9d066bddb1d39f83e64736f6c63430008180033",
    "linkReferences": {},
    "deployedLinkReferences": {}
}